{
  "_format": "hh-sol-artifact-1",
  "contractName": "PecuLabVisit",
  "sourceName": "contracts/PecuLabNFTVisit.sol",
  "abi": [
    {
      "inputs": [],
      "stateMutability": "nonpayable",
      "type": "constructor"
    },
    {
      "anonymous": false,
      "inputs": [
        {
          "indexed": true,
          "internalType": "address",
          "name": "owner",
          "type": "address"
        },
        {
          "indexed": true,
          "internalType": "address",
          "name": "approved",
          "type": "address"
        },
        {
          "indexed": true,
          "internalType": "uint256",
          "name": "tokenId",
          "type": "uint256"
        }
      ],
      "name": "Approval",
      "type": "event"
    },
    {
      "anonymous": false,
      "inputs": [
        {
          "indexed": true,
          "internalType": "address",
          "name": "owner",
          "type": "address"
        },
        {
          "indexed": true,
          "internalType": "address",
          "name": "operator",
          "type": "address"
        },
        {
          "indexed": false,
          "internalType": "bool",
          "name": "approved",
          "type": "bool"
        }
      ],
      "name": "ApprovalForAll",
      "type": "event"
    },
    {
      "anonymous": false,
      "inputs": [
        {
          "indexed": true,
          "internalType": "address",
          "name": "from",
          "type": "address"
        },
        {
          "indexed": true,
          "internalType": "address",
          "name": "to",
          "type": "address"
        },
        {
          "indexed": true,
          "internalType": "uint256",
          "name": "tokenId",
          "type": "uint256"
        }
      ],
      "name": "Transfer",
      "type": "event"
    },
    {
      "inputs": [
        {
          "internalType": "address",
          "name": "to",
          "type": "address"
        },
        {
          "internalType": "uint256",
          "name": "tokenId",
          "type": "uint256"
        }
      ],
      "name": "approve",
      "outputs": [],
      "stateMutability": "nonpayable",
      "type": "function"
    },
    {
      "inputs": [
        {
          "internalType": "address",
          "name": "owner",
          "type": "address"
        }
      ],
      "name": "balanceOf",
      "outputs": [
        {
          "internalType": "uint256",
          "name": "",
          "type": "uint256"
        }
      ],
      "stateMutability": "view",
      "type": "function"
    },
    {
      "inputs": [
        {
          "internalType": "uint256",
          "name": "tokenId",
          "type": "uint256"
        }
      ],
      "name": "getApproved",
      "outputs": [
        {
          "internalType": "address",
          "name": "",
          "type": "address"
        }
      ],
      "stateMutability": "view",
      "type": "function"
    },
    {
      "inputs": [
        {
          "internalType": "address",
          "name": "owner",
          "type": "address"
        },
        {
          "internalType": "address",
          "name": "operator",
          "type": "address"
        }
      ],
      "name": "isApprovedForAll",
      "outputs": [
        {
          "internalType": "bool",
          "name": "",
          "type": "bool"
        }
      ],
      "stateMutability": "view",
      "type": "function"
    },
    {
      "inputs": [
        {
          "internalType": "address",
          "name": "to",
          "type": "address"
        },
        {
          "internalType": "string",
          "name": "_tokenURI",
          "type": "string"
        }
      ],
      "name": "mint",
      "outputs": [],
      "stateMutability": "nonpayable",
      "type": "function"
    },
    {
      "inputs": [],
      "name": "name",
      "outputs": [
        {
          "internalType": "string",
          "name": "",
          "type": "string"
        }
      ],
      "stateMutability": "view",
      "type": "function"
    },
    {
      "inputs": [
        {
          "internalType": "uint256",
          "name": "tokenId",
          "type": "uint256"
        }
      ],
      "name": "ownerOf",
      "outputs": [
        {
          "internalType": "address",
          "name": "",
          "type": "address"
        }
      ],
      "stateMutability": "view",
      "type": "function"
    },
    {
      "inputs": [
        {
          "internalType": "address",
          "name": "from",
          "type": "address"
        },
        {
          "internalType": "address",
          "name": "to",
          "type": "address"
        },
        {
          "internalType": "uint256",
          "name": "tokenId",
          "type": "uint256"
        }
      ],
      "name": "safeTransferFrom",
      "outputs": [],
      "stateMutability": "nonpayable",
      "type": "function"
    },
    {
      "inputs": [
        {
          "internalType": "address",
          "name": "from",
          "type": "address"
        },
        {
          "internalType": "address",
          "name": "to",
          "type": "address"
        },
        {
          "internalType": "uint256",
          "name": "tokenId",
          "type": "uint256"
        },
        {
          "internalType": "bytes",
          "name": "_data",
          "type": "bytes"
        }
      ],
      "name": "safeTransferFrom",
      "outputs": [],
      "stateMutability": "nonpayable",
      "type": "function"
    },
    {
      "inputs": [
        {
          "internalType": "address",
          "name": "operator",
          "type": "address"
        },
        {
          "internalType": "bool",
          "name": "approved",
          "type": "bool"
        }
      ],
      "name": "setApprovalForAll",
      "outputs": [],
      "stateMutability": "nonpayable",
      "type": "function"
    },
    {
      "inputs": [
        {
          "internalType": "bytes4",
          "name": "interfaceId",
          "type": "bytes4"
        }
      ],
      "name": "supportsInterface",
      "outputs": [
        {
          "internalType": "bool",
          "name": "",
          "type": "bool"
        }
      ],
      "stateMutability": "view",
      "type": "function"
    },
    {
      "inputs": [],
      "name": "symbol",
      "outputs": [
        {
          "internalType": "string",
          "name": "",
          "type": "string"
        }
      ],
      "stateMutability": "view",
      "type": "function"
    },
    {
      "inputs": [],
      "name": "tokenCounter",
      "outputs": [
        {
          "internalType": "uint256",
          "name": "",
          "type": "uint256"
        }
      ],
      "stateMutability": "view",
      "type": "function"
    },
    {
      "inputs": [
        {
          "internalType": "uint256",
          "name": "_tokenId",
          "type": "uint256"
        }
      ],
      "name": "tokenURI",
      "outputs": [
        {
          "internalType": "string",
          "name": "",
          "type": "string"
        }
      ],
      "stateMutability": "view",
      "type": "function"
    },
    {
      "inputs": [
        {
          "internalType": "address",
          "name": "from",
          "type": "address"
        },
        {
          "internalType": "address",
          "name": "to",
          "type": "address"
        },
        {
          "internalType": "uint256",
          "name": "tokenId",
          "type": "uint256"
        }
      ],
      "name": "transferFrom",
      "outputs": [],
      "stateMutability": "nonpayable",
      "type": "function"
    }
  ],
  "bytecode": "0x60806040523480156200001157600080fd5b506040518060400160405280600c81526020017f506563754c6162566973697400000000000000000000000000000000000000008152506040518060400160405280600481526020017f5049443400000000000000000000000000000000000000000000000000000000815250816000908051906020019062000096929190620000c0565b508060019080519060200190620000af929190620000c0565b5050506000600681905550620001d5565b828054620000ce9062000170565b90600052602060002090601f016020900481019282620000f257600085556200013e565b82601f106200010d57805160ff19168380011785556200013e565b828001600101855582156200013e579182015b828111156200013d57825182559160200191906001019062000120565b5b5090506200014d919062000151565b5090565b5b808211156200016c57600081600090555060010162000152565b5090565b600060028204905060018216806200018957607f821691505b60208210811415620001a0576200019f620001a6565b5b50919050565b7f4e487b7100000000000000000000000000000000000000000000000000000000600052602260045260246000fd5b61272180620001e56000396000f3fe608060405234801561001057600080fd5b50600436106100f55760003560e01c806370a0823111610097578063c87b56dd11610066578063c87b56dd14610282578063d082e381146102b2578063d0def521146102d0578063e985e9c5146102ec576100f5565b806370a08231146101fc57806395d89b411461022c578063a22cb4651461024a578063b88d4fde14610266576100f5565b8063095ea7b3116100d3578063095ea7b31461017857806323b872dd1461019457806342842e0e146101b05780636352211e146101cc576100f5565b806301ffc9a7146100fa57806306fdde031461012a578063081812fc14610148575b600080fd5b610114600480360381019061010f91906119e3565b61031c565b6040516101219190611d4e565b60405180910390f35b6101326103fe565b60405161013f9190611d69565b60405180910390f35b610162600480360381019061015d9190611a35565b610490565b60405161016f9190611ce7565b60405180910390f35b610192600480360381019061018d91906119a7565b610515565b005b6101ae60048036038101906101a9919061184d565b61062d565b005b6101ca60048036038101906101c5919061184d565b61068d565b005b6101e660048036038101906101e19190611a35565b6106ad565b6040516101f39190611ce7565b60405180910390f35b610216600480360381019061021191906117e8565b61075f565b6040516102239190611f4b565b60405180910390f35b610234610817565b6040516102419190611d69565b60405180910390f35b610264600480360381019061025f9190611917565b6108a9565b005b610280600480360381019061027b919061189c565b6108bf565b005b61029c60048036038101906102979190611a35565b610921565b6040516102a99190611d69565b60405180910390f35b6102ba610a0e565b6040516102c79190611f4b565b60405180910390f35b6102ea60048036038101906102e59190611953565b610a14565b005b61030660048036038101906103019190611811565b610a48565b6040516103139190611d4e565b60405180910390f35b60007f80ac58cd000000000000000000000000000000000000000000000000000000007bffffffffffffffffffffffffffffffffffffffffffffffffffffffff1916827bffffffffffffffffffffffffffffffffffffffffffffffffffffffff191614806103e757507f5b5e139f000000000000000000000000000000000000000000000000000000007bffffffffffffffffffffffffffffffffffffffffffffffffffffffff1916827bffffffffffffffffffffffffffffffffffffffffffffffffffffffff1916145b806103f757506103f682610adc565b5b9050919050565b60606000805461040d90612165565b80601f016020809104026020016040519081016040528092919081815260200182805461043990612165565b80156104865780601f1061045b57610100808354040283529160200191610486565b820191906000526020600020905b81548152906001019060200180831161046957829003601f168201915b5050505050905090565b600061049b82610b46565b6104da576040517f08c379a00000000000000000000000000000000000000000000000000000000081526004016104d190611ecb565b60405180910390fd5b6004600083815260200190815260200160002060009054906101000a900473ffffffffffffffffffffffffffffffffffffffff169050919050565b6000610520826106ad565b90508073ffffffffffffffffffffffffffffffffffffffff168373ffffffffffffffffffffffffffffffffffffffff161415610591576040517f08c379a000000000000000000000000000000000000000000000000000000000815260040161058890611f0b565b60405180910390fd5b8073ffffffffffffffffffffffffffffffffffffffff166105b0610bb2565b73ffffffffffffffffffffffffffffffffffffffff1614806105df57506105de816105d9610bb2565b610a48565b5b61061e576040517f08c379a000000000000000000000000000000000000000000000000000000000815260040161061590611e4b565b60405180910390fd5b6106288383610bba565b505050565b61063e610638610bb2565b82610c73565b61067d576040517f08c379a000000000000000000000000000000000000000000000000000000000815260040161067490611f2b565b60405180910390fd5b610688838383610d51565b505050565b6106a8838383604051806020016040528060008152506108bf565b505050565b6000806002600084815260200190815260200160002060009054906101000a900473ffffffffffffffffffffffffffffffffffffffff169050600073ffffffffffffffffffffffffffffffffffffffff168173ffffffffffffffffffffffffffffffffffffffff161415610756576040517f08c379a000000000000000000000000000000000000000000000000000000000815260040161074d90611e8b565b60405180910390fd5b80915050919050565b60008073ffffffffffffffffffffffffffffffffffffffff168273ffffffffffffffffffffffffffffffffffffffff1614156107d0576040517f08c379a00000000000000000000000000000000000000000000000000000000081526004016107c790611e6b565b60405180910390fd5b600360008373ffffffffffffffffffffffffffffffffffffffff1673ffffffffffffffffffffffffffffffffffffffff168152602001908152602001600020549050919050565b60606001805461082690612165565b80601f016020809104026020016040519081016040528092919081815260200182805461085290612165565b801561089f5780601f106108745761010080835404028352916020019161089f565b820191906000526020600020905b81548152906001019060200180831161088257829003601f168201915b5050505050905090565b6108bb6108b4610bb2565b8383610fb8565b5050565b6108d06108ca610bb2565b83610c73565b61090f576040517f08c379a000000000000000000000000000000000000000000000000000000000815260040161090690611f2b565b60405180910390fd5b61091b84848484611125565b50505050565b606061092c82610b46565b61096b576040517f08c379a000000000000000000000000000000000000000000000000000000000815260040161096290611eeb565b60405180910390fd5b60076000838152602001908152602001600020805461098990612165565b80601f01602080910402602001604051908101604052809291908181526020018280546109b590612165565b8015610a025780601f106109d757610100808354040283529160200191610a02565b820191906000526020600020905b8154815290600101906020018083116109e557829003601f168201915b50505050509050919050565b60065481565b610a2082600654611181565b610a2c6006548261119f565b60066000815480929190610a3f906121c8565b91905055505050565b6000600560008473ffffffffffffffffffffffffffffffffffffffff1673ffffffffffffffffffffffffffffffffffffffff16815260200190815260200160002060008373ffffffffffffffffffffffffffffffffffffffff1673ffffffffffffffffffffffffffffffffffffffff16815260200190815260200160002060009054906101000a900460ff16905092915050565b60007f01ffc9a7000000000000000000000000000000000000000000000000000000007bffffffffffffffffffffffffffffffffffffffffffffffffffffffff1916827bffffffffffffffffffffffffffffffffffffffffffffffffffffffff1916149050919050565b60008073ffffffffffffffffffffffffffffffffffffffff166002600084815260200190815260200160002060009054906101000a900473ffffffffffffffffffffffffffffffffffffffff1673ffffffffffffffffffffffffffffffffffffffff1614159050919050565b600033905090565b816004600083815260200190815260200160002060006101000a81548173ffffffffffffffffffffffffffffffffffffffff021916908373ffffffffffffffffffffffffffffffffffffffff160217905550808273ffffffffffffffffffffffffffffffffffffffff16610c2d836106ad565b73ffffffffffffffffffffffffffffffffffffffff167f8c5be1e5ebec7d5bd14f71427d1e84f3dd0314c0f7b2291e5b200ac8c7c3b92560405160405180910390a45050565b6000610c7e82610b46565b610cbd576040517f08c379a0000000000000000000000000000000000000000000000000000000008152600401610cb490611e2b565b60405180910390fd5b6000610cc8836106ad565b90508073ffffffffffffffffffffffffffffffffffffffff168473ffffffffffffffffffffffffffffffffffffffff161480610d3757508373ffffffffffffffffffffffffffffffffffffffff16610d1f84610490565b73ffffffffffffffffffffffffffffffffffffffff16145b80610d485750610d478185610a48565b5b91505092915050565b8273ffffffffffffffffffffffffffffffffffffffff16610d71826106ad565b73ffffffffffffffffffffffffffffffffffffffff1614610dc7576040517f08c379a0000000000000000000000000000000000000000000000000000000008152600401610dbe90611dab565b60405180910390fd5b600073ffffffffffffffffffffffffffffffffffffffff168273ffffffffffffffffffffffffffffffffffffffff161415610e37576040517f08c379a0000000000000000000000000000000000000000000000000000000008152600401610e2e90611deb565b60405180910390fd5b610e42838383611213565b610e4d600082610bba565b6001600360008573ffffffffffffffffffffffffffffffffffffffff1673ffffffffffffffffffffffffffffffffffffffff1681526020019081526020016000206000828254610e9d919061207b565b925050819055506001600360008473ffffffffffffffffffffffffffffffffffffffff1673ffffffffffffffffffffffffffffffffffffffff1681526020019081526020016000206000828254610ef49190612025565b92505081905550816002600083815260200190815260200160002060006101000a81548173ffffffffffffffffffffffffffffffffffffffff021916908373ffffffffffffffffffffffffffffffffffffffff160217905550808273ffffffffffffffffffffffffffffffffffffffff168473ffffffffffffffffffffffffffffffffffffffff167fddf252ad1be2c89b69c2b068fc378daa952ba7f163c4a11628f55a4df523b3ef60405160405180910390a4610fb3838383611218565b505050565b8173ffffffffffffffffffffffffffffffffffffffff168373ffffffffffffffffffffffffffffffffffffffff161415611027576040517f08c379a000000000000000000000000000000000000000000000000000000000815260040161101e90611e0b565b60405180910390fd5b80600560008573ffffffffffffffffffffffffffffffffffffffff1673ffffffffffffffffffffffffffffffffffffffff16815260200190815260200160002060008473ffffffffffffffffffffffffffffffffffffffff1673ffffffffffffffffffffffffffffffffffffffff16815260200190815260200160002060006101000a81548160ff0219169083151502179055508173ffffffffffffffffffffffffffffffffffffffff168373ffffffffffffffffffffffffffffffffffffffff167f17307eab39ab6107e8899845ad3d59bd9653f200f220920489ca2b5937696c31836040516111189190611d4e565b60405180910390a3505050565b611130848484610d51565b61113c8484848461121d565b61117b576040517f08c379a000000000000000000000000000000000000000000000000000000000815260040161117290611d8b565b60405180910390fd5b50505050565b61119b8282604051806020016040528060008152506113b4565b5050565b6111a882610b46565b6111e7576040517f08c379a00000000000000000000000000000000000000000000000000000000081526004016111de90611eeb565b60405180910390fd5b8060076000848152602001908152602001600020908051906020019061120e92919061160c565b505050565b505050565b505050565b600061123e8473ffffffffffffffffffffffffffffffffffffffff1661140f565b156113a7578373ffffffffffffffffffffffffffffffffffffffff1663150b7a02611267610bb2565b8786866040518563ffffffff1660e01b81526004016112899493929190611d02565b602060405180830381600087803b1580156112a357600080fd5b505af19250505080156112d457506040513d601f19601f820116820180604052508101906112d19190611a0c565b60015b611357573d8060008114611304576040519150601f19603f3d011682016040523d82523d6000602084013e611309565b606091505b5060008151141561134f576040517f08c379a000000000000000000000000000000000000000000000000000000000815260040161134690611d8b565b60405180910390fd5b805181602001fd5b63150b7a0260e01b7bffffffffffffffffffffffffffffffffffffffffffffffffffffffff1916817bffffffffffffffffffffffffffffffffffffffffffffffffffffffff1916149150506113ac565b600190505b949350505050565b6113be8383611432565b6113cb600084848461121d565b61140a576040517f08c379a000000000000000000000000000000000000000000000000000000000815260040161140190611d8b565b60405180910390fd5b505050565b6000808273ffffffffffffffffffffffffffffffffffffffff163b119050919050565b600073ffffffffffffffffffffffffffffffffffffffff168273ffffffffffffffffffffffffffffffffffffffff1614156114a2576040517f08c379a000000000000000000000000000000000000000000000000000000000815260040161149990611eab565b60405180910390fd5b6114ab81610b46565b156114eb576040517f08c379a00000000000000000000000000000000000000000000000000000000081526004016114e290611dcb565b60405180910390fd5b6114f760008383611213565b6001600360008473ffffffffffffffffffffffffffffffffffffffff1673ffffffffffffffffffffffffffffffffffffffff16815260200190815260200160002060008282546115479190612025565b92505081905550816002600083815260200190815260200160002060006101000a81548173ffffffffffffffffffffffffffffffffffffffff021916908373ffffffffffffffffffffffffffffffffffffffff160217905550808273ffffffffffffffffffffffffffffffffffffffff16600073ffffffffffffffffffffffffffffffffffffffff167fddf252ad1be2c89b69c2b068fc378daa952ba7f163c4a11628f55a4df523b3ef60405160405180910390a461160860008383611218565b5050565b82805461161890612165565b90600052602060002090601f01602090048101928261163a5760008555611681565b82601f1061165357805160ff1916838001178555611681565b82800160010185558215611681579182015b82811115611680578251825591602001919060010190611665565b5b50905061168e9190611692565b5090565b5b808211156116ab576000816000905550600101611693565b5090565b60006116c26116bd84611f8b565b611f66565b9050828152602081018484840111156116da57600080fd5b6116e5848285612123565b509392505050565b60006117006116fb84611fbc565b611f66565b90508281526020810184848401111561171857600080fd5b611723848285612123565b509392505050565b60008135905061173a8161268f565b92915050565b60008135905061174f816126a6565b92915050565b600081359050611764816126bd565b92915050565b600081519050611779816126bd565b92915050565b600082601f83011261179057600080fd5b81356117a08482602086016116af565b91505092915050565b600082601f8301126117ba57600080fd5b81356117ca8482602086016116ed565b91505092915050565b6000813590506117e2816126d4565b92915050565b6000602082840312156117fa57600080fd5b60006118088482850161172b565b91505092915050565b6000806040838503121561182457600080fd5b60006118328582860161172b565b92505060206118438582860161172b565b9150509250929050565b60008060006060848603121561186257600080fd5b60006118708682870161172b565b93505060206118818682870161172b565b9250506040611892868287016117d3565b9150509250925092565b600080600080608085870312156118b257600080fd5b60006118c08782880161172b565b94505060206118d18782880161172b565b93505060406118e2878288016117d3565b925050606085013567ffffffffffffffff8111156118ff57600080fd5b61190b8782880161177f565b91505092959194509250565b6000806040838503121561192a57600080fd5b60006119388582860161172b565b925050602061194985828601611740565b9150509250929050565b6000806040838503121561196657600080fd5b60006119748582860161172b565b925050602083013567ffffffffffffffff81111561199157600080fd5b61199d858286016117a9565b9150509250929050565b600080604083850312156119ba57600080fd5b60006119c88582860161172b565b92505060206119d9858286016117d3565b9150509250929050565b6000602082840312156119f557600080fd5b6000611a0384828501611755565b91505092915050565b600060208284031215611a1e57600080fd5b6000611a2c8482850161176a565b91505092915050565b600060208284031215611a4757600080fd5b6000611a55848285016117d3565b91505092915050565b611a67816120af565b82525050565b611a76816120c1565b82525050565b6000611a8782611fed565b611a918185612003565b9350611aa1818560208601612132565b611aaa8161229e565b840191505092915050565b6000611ac082611ff8565b611aca8185612014565b9350611ada818560208601612132565b611ae38161229e565b840191505092915050565b6000611afb603283612014565b9150611b06826122af565b604082019050919050565b6000611b1e602583612014565b9150611b29826122fe565b604082019050919050565b6000611b41601c83612014565b9150611b4c8261234d565b602082019050919050565b6000611b64602483612014565b9150611b6f82612376565b604082019050919050565b6000611b87601983612014565b9150611b92826123c5565b602082019050919050565b6000611baa602c83612014565b9150611bb5826123ee565b604082019050919050565b6000611bcd603883612014565b9150611bd88261243d565b604082019050919050565b6000611bf0602a83612014565b9150611bfb8261248c565b604082019050919050565b6000611c13602983612014565b9150611c1e826124db565b604082019050919050565b6000611c36602083612014565b9150611c418261252a565b602082019050919050565b6000611c59602c83612014565b9150611c6482612553565b604082019050919050565b6000611c7c602c83612014565b9150611c87826125a2565b604082019050919050565b6000611c9f602183612014565b9150611caa826125f1565b604082019050919050565b6000611cc2603183612014565b9150611ccd82612640565b604082019050919050565b611ce181612119565b82525050565b6000602082019050611cfc6000830184611a5e565b92915050565b6000608082019050611d176000830187611a5e565b611d246020830186611a5e565b611d316040830185611cd8565b8181036060830152611d438184611a7c565b905095945050505050565b6000602082019050611d636000830184611a6d565b92915050565b60006020820190508181036000830152611d838184611ab5565b905092915050565b60006020820190508181036000830152611da481611aee565b9050919050565b60006020820190508181036000830152611dc481611b11565b9050919050565b60006020820190508181036000830152611de481611b34565b9050919050565b60006020820190508181036000830152611e0481611b57565b9050919050565b60006020820190508181036000830152611e2481611b7a565b9050919050565b60006020820190508181036000830152611e4481611b9d565b9050919050565b60006020820190508181036000830152611e6481611bc0565b9050919050565b60006020820190508181036000830152611e8481611be3565b9050919050565b60006020820190508181036000830152611ea481611c06565b9050919050565b60006020820190508181036000830152611ec481611c29565b9050919050565b60006020820190508181036000830152611ee481611c4c565b9050919050565b60006020820190508181036000830152611f0481611c6f565b9050919050565b60006020820190508181036000830152611f2481611c92565b9050919050565b60006020820190508181036000830152611f4481611cb5565b9050919050565b6000602082019050611f606000830184611cd8565b92915050565b6000611f70611f81565b9050611f7c8282612197565b919050565b6000604051905090565b600067ffffffffffffffff821115611fa657611fa561226f565b5b611faf8261229e565b9050602081019050919050565b600067ffffffffffffffff821115611fd757611fd661226f565b5b611fe08261229e565b9050602081019050919050565b600081519050919050565b600081519050919050565b600082825260208201905092915050565b600082825260208201905092915050565b600061203082612119565b915061203b83612119565b9250827fffffffffffffffffffffffffffffffffffffffffffffffffffffffffffffffff038211156120705761206f612211565b5b828201905092915050565b600061208682612119565b915061209183612119565b9250828210156120a4576120a3612211565b5b828203905092915050565b60006120ba826120f9565b9050919050565b60008115159050919050565b60007fffffffff0000000000000000000000000000000000000000000000000000000082169050919050565b600073ffffffffffffffffffffffffffffffffffffffff82169050919050565b6000819050919050565b82818337600083830152505050565b60005b83811015612150578082015181840152602081019050612135565b8381111561215f576000848401525b50505050565b6000600282049050600182168061217d57607f821691505b6020821081141561219157612190612240565b5b50919050565b6121a08261229e565b810181811067ffffffffffffffff821117156121bf576121be61226f565b5b80604052505050565b60006121d382612119565b91507fffffffffffffffffffffffffffffffffffffffffffffffffffffffffffffffff82141561220657612205612211565b5b600182019050919050565b7f4e487b7100000000000000000000000000000000000000000000000000000000600052601160045260246000fd5b7f4e487b7100000000000000000000000000000000000000000000000000000000600052602260045260246000fd5b7f4e487b7100000000000000000000000000000000000000000000000000000000600052604160045260246000fd5b6000601f19601f8301169050919050565b7f4552433732313a207472616e7366657220746f206e6f6e20455243373231526560008201527f63656976657220696d706c656d656e7465720000000000000000000000000000602082015250565b7f4552433732313a207472616e736665722066726f6d20696e636f72726563742060008201527f6f776e6572000000000000000000000000000000000000000000000000000000602082015250565b7f4552433732313a20746f6b656e20616c7265616479206d696e74656400000000600082015250565b7f4552433732313a207472616e7366657220746f20746865207a65726f2061646460008201527f7265737300000000000000000000000000000000000000000000000000000000602082015250565b7f4552433732313a20617070726f766520746f2063616c6c657200000000000000600082015250565b7f4552433732313a206f70657261746f7220717565727920666f72206e6f6e657860008201527f697374656e7420746f6b656e0000000000000000000000000000000000000000602082015250565b7f4552433732313a20617070726f76652063616c6c6572206973206e6f74206f7760008201527f6e6572206e6f7220617070726f76656420666f7220616c6c0000000000000000602082015250565b7f4552433732313a2062616c616e636520717565727920666f7220746865207a6560008201527f726f206164647265737300000000000000000000000000000000000000000000602082015250565b7f4552433732313a206f776e657220717565727920666f72206e6f6e657869737460008201527f656e7420746f6b656e0000000000000000000000000000000000000000000000602082015250565b7f4552433732313a206d696e7420746f20746865207a65726f2061646472657373600082015250565b7f4552433732313a20617070726f76656420717565727920666f72206e6f6e657860008201527f697374656e7420746f6b656e0000000000000000000000000000000000000000602082015250565b7f4552433732314d657461646174613a2055524920736574206f66206e6f6e657860008201527f697374656e7420746f6b656e0000000000000000000000000000000000000000602082015250565b7f4552433732313a20617070726f76616c20746f2063757272656e74206f776e6560008201527f7200000000000000000000000000000000000000000000000000000000000000602082015250565b7f4552433732313a207472616e736665722063616c6c6572206973206e6f74206f60008201527f776e6572206e6f7220617070726f766564000000000000000000000000000000602082015250565b612698816120af565b81146126a357600080fd5b50565b6126af816120c1565b81146126ba57600080fd5b50565b6126c6816120cd565b81146126d157600080fd5b50565b6126dd81612119565b81146126e857600080fd5b5056fea26469706673582212200991907bc60c8d0e02cf72b38c334424074526d64cee0d4420f5670df5dab24e64736f6c63430008040033",
  "linkReferences": {},
  "deployedLinkReferences": {}
}