{
  "_format": "hh-sol-artifact-1",
  "contractName": "PuzzleNFT",
  "sourceName": "contracts/BlindBox.sol",
  "abi": [
    {
      "inputs": [],
      "stateMutability": "nonpayable",
      "type": "constructor"
    },
    {
      "anonymous": false,
      "inputs": [
        {
          "indexed": true,
          "internalType": "address",
          "name": "account",
          "type": "address"
        },
        {
          "indexed": true,
          "internalType": "address",
          "name": "operator",
          "type": "address"
        },
        {
          "indexed": false,
          "internalType": "bool",
          "name": "approved",
          "type": "bool"
        }
      ],
      "name": "ApprovalForAll",
      "type": "event"
    },
    {
      "anonymous": false,
      "inputs": [
        {
          "indexed": true,
          "internalType": "address",
          "name": "previousOwner",
          "type": "address"
        },
        {
          "indexed": true,
          "internalType": "address",
          "name": "newOwner",
          "type": "address"
        }
      ],
      "name": "OwnershipTransferred",
      "type": "event"
    },
    {
      "anonymous": false,
      "inputs": [
        {
          "indexed": true,
          "internalType": "address",
          "name": "operator",
          "type": "address"
        },
        {
          "indexed": true,
          "internalType": "address",
          "name": "from",
          "type": "address"
        },
        {
          "indexed": true,
          "internalType": "address",
          "name": "to",
          "type": "address"
        },
        {
          "indexed": false,
          "internalType": "uint256[]",
          "name": "ids",
          "type": "uint256[]"
        },
        {
          "indexed": false,
          "internalType": "uint256[]",
          "name": "values",
          "type": "uint256[]"
        }
      ],
      "name": "TransferBatch",
      "type": "event"
    },
    {
      "anonymous": false,
      "inputs": [
        {
          "indexed": true,
          "internalType": "address",
          "name": "operator",
          "type": "address"
        },
        {
          "indexed": true,
          "internalType": "address",
          "name": "from",
          "type": "address"
        },
        {
          "indexed": true,
          "internalType": "address",
          "name": "to",
          "type": "address"
        },
        {
          "indexed": false,
          "internalType": "uint256",
          "name": "id",
          "type": "uint256"
        },
        {
          "indexed": false,
          "internalType": "uint256",
          "name": "value",
          "type": "uint256"
        }
      ],
      "name": "TransferSingle",
      "type": "event"
    },
    {
      "anonymous": false,
      "inputs": [
        {
          "indexed": false,
          "internalType": "string",
          "name": "value",
          "type": "string"
        },
        {
          "indexed": true,
          "internalType": "uint256",
          "name": "id",
          "type": "uint256"
        }
      ],
      "name": "URI",
      "type": "event"
    },
    {
      "inputs": [],
      "name": "_revealed",
      "outputs": [
        {
          "internalType": "bool",
          "name": "",
          "type": "bool"
        }
      ],
      "stateMutability": "view",
      "type": "function"
    },
    {
      "inputs": [
        {
          "internalType": "address",
          "name": "account",
          "type": "address"
        },
        {
          "internalType": "uint256",
          "name": "id",
          "type": "uint256"
        }
      ],
      "name": "balanceOf",
      "outputs": [
        {
          "internalType": "uint256",
          "name": "",
          "type": "uint256"
        }
      ],
      "stateMutability": "view",
      "type": "function"
    },
    {
      "inputs": [
        {
          "internalType": "address[]",
          "name": "accounts",
          "type": "address[]"
        },
        {
          "internalType": "uint256[]",
          "name": "ids",
          "type": "uint256[]"
        }
      ],
      "name": "balanceOfBatch",
      "outputs": [
        {
          "internalType": "uint256[]",
          "name": "",
          "type": "uint256[]"
        }
      ],
      "stateMutability": "view",
      "type": "function"
    },
    {
      "inputs": [],
      "name": "baseExtension",
      "outputs": [
        {
          "internalType": "string",
          "name": "",
          "type": "string"
        }
      ],
      "stateMutability": "view",
      "type": "function"
    },
    {
      "inputs": [],
      "name": "baseURI",
      "outputs": [
        {
          "internalType": "string",
          "name": "",
          "type": "string"
        }
      ],
      "stateMutability": "view",
      "type": "function"
    },
    {
      "inputs": [],
      "name": "flipReveal",
      "outputs": [],
      "stateMutability": "nonpayable",
      "type": "function"
    },
    {
      "inputs": [
        {
          "internalType": "address",
          "name": "account",
          "type": "address"
        },
        {
          "internalType": "address",
          "name": "operator",
          "type": "address"
        }
      ],
      "name": "isApprovedForAll",
      "outputs": [
        {
          "internalType": "bool",
          "name": "",
          "type": "bool"
        }
      ],
      "stateMutability": "view",
      "type": "function"
    },
    {
      "inputs": [
        {
          "internalType": "address",
          "name": "account",
          "type": "address"
        },
        {
          "internalType": "uint256",
          "name": "id",
          "type": "uint256"
        }
      ],
      "name": "mint",
      "outputs": [],
      "stateMutability": "nonpayable",
      "type": "function"
    },
    {
      "inputs": [],
      "name": "mintPrice",
      "outputs": [
        {
          "internalType": "uint256",
          "name": "",
          "type": "uint256"
        }
      ],
      "stateMutability": "view",
      "type": "function"
    },
    {
      "inputs": [],
      "name": "owner",
      "outputs": [
        {
          "internalType": "address",
          "name": "",
          "type": "address"
        }
      ],
      "stateMutability": "view",
      "type": "function"
    },
    {
      "inputs": [],
      "name": "renounceOwnership",
      "outputs": [],
      "stateMutability": "nonpayable",
      "type": "function"
    },
    {
      "inputs": [
        {
          "internalType": "address",
          "name": "from",
          "type": "address"
        },
        {
          "internalType": "address",
          "name": "to",
          "type": "address"
        },
        {
          "internalType": "uint256[]",
          "name": "ids",
          "type": "uint256[]"
        },
        {
          "internalType": "uint256[]",
          "name": "amounts",
          "type": "uint256[]"
        },
        {
          "internalType": "bytes",
          "name": "data",
          "type": "bytes"
        }
      ],
      "name": "safeBatchTransferFrom",
      "outputs": [],
      "stateMutability": "nonpayable",
      "type": "function"
    },
    {
      "inputs": [
        {
          "internalType": "address",
          "name": "from",
          "type": "address"
        },
        {
          "internalType": "address",
          "name": "to",
          "type": "address"
        },
        {
          "internalType": "uint256",
          "name": "id",
          "type": "uint256"
        },
        {
          "internalType": "uint256",
          "name": "amount",
          "type": "uint256"
        },
        {
          "internalType": "bytes",
          "name": "data",
          "type": "bytes"
        }
      ],
      "name": "safeTransferFrom",
      "outputs": [],
      "stateMutability": "nonpayable",
      "type": "function"
    },
    {
      "inputs": [
        {
          "internalType": "address",
          "name": "operator",
          "type": "address"
        },
        {
          "internalType": "bool",
          "name": "approved",
          "type": "bool"
        }
      ],
      "name": "setApprovalForAll",
      "outputs": [],
      "stateMutability": "nonpayable",
      "type": "function"
    },
    {
      "inputs": [
        {
          "internalType": "string",
          "name": "_newBaseExtension",
          "type": "string"
        }
      ],
      "name": "setBaseExtension",
      "outputs": [],
      "stateMutability": "nonpayable",
      "type": "function"
    },
    {
      "inputs": [
        {
          "internalType": "string",
          "name": "_newBaseURI",
          "type": "string"
        }
      ],
      "name": "setBaseURI",
      "outputs": [],
      "stateMutability": "nonpayable",
      "type": "function"
    },
    {
      "inputs": [
        {
          "internalType": "uint256",
          "name": "_mintPrice",
          "type": "uint256"
        }
      ],
      "name": "setMintPrice",
      "outputs": [],
      "stateMutability": "nonpayable",
      "type": "function"
    },
    {
      "inputs": [
        {
          "internalType": "bytes4",
          "name": "interfaceId",
          "type": "bytes4"
        }
      ],
      "name": "supportsInterface",
      "outputs": [
        {
          "internalType": "bool",
          "name": "",
          "type": "bool"
        }
      ],
      "stateMutability": "view",
      "type": "function"
    },
    {
      "inputs": [
        {
          "internalType": "uint256",
          "name": "tokenId",
          "type": "uint256"
        }
      ],
      "name": "tokenURI",
      "outputs": [
        {
          "internalType": "string",
          "name": "",
          "type": "string"
        }
      ],
      "stateMutability": "nonpayable",
      "type": "function"
    },
    {
      "inputs": [
        {
          "internalType": "address",
          "name": "newOwner",
          "type": "address"
        }
      ],
      "name": "transferOwnership",
      "outputs": [],
      "stateMutability": "nonpayable",
      "type": "function"
    },
    {
      "inputs": [
        {
          "internalType": "uint256",
          "name": "",
          "type": "uint256"
        }
      ],
      "name": "uri",
      "outputs": [
        {
          "internalType": "string",
          "name": "",
          "type": "string"
        }
      ],
      "stateMutability": "view",
      "type": "function"
    },
    {
      "inputs": [
        {
          "internalType": "address",
          "name": "to",
          "type": "address"
        }
      ],
      "name": "withdraw",
      "outputs": [],
      "stateMutability": "nonpayable",
      "type": "function"
    }
  ],
  "bytecode": "0x60806040526000600360146101000a81548160ff021916908315150217905550666a94d74f4300006004556040518060400160405280600581526020017f2e6a736f6e0000000000000000000000000000000000000000000000000000008152506006908051906020019062000077929190620009cf565b5060405180606001604052806035815260200162004edd6035913960089080519060200190620000a9929190620009cf565b5060405180606001604052806036815260200162004ea76036913960099080519060200190620000db929190620009cf565b50348015620000e957600080fd5b5060088054620000f99062000e7e565b80601f0160208091040260200160405190810160405280929190818152602001828054620001279062000e7e565b8015620001785780601f106200014c5761010080835404028352916020019162000178565b820191906000526020600020905b8154815290600101906020018083116200015a57829003601f168201915b50505050506200018e816200026b60201b60201c565b50620001af620001a36200028760201b60201c565b6200028f60201b60201c565b6200025260098054620001c29062000e7e565b80601f0160208091040260200160405190810160405280929190818152602001828054620001f09062000e7e565b8015620002415780601f10620002155761010080835404028352916020019162000241565b820191906000526020600020905b8154815290600101906020018083116200022357829003601f168201915b50505050506200035560201b60201c565b620002653360056200040060201b60201c565b6200118c565b806002908051906020019062000283929190620009cf565b5050565b600033905090565b6000600360009054906101000a900473ffffffffffffffffffffffffffffffffffffffff16905081600360006101000a81548173ffffffffffffffffffffffffffffffffffffffff021916908373ffffffffffffffffffffffffffffffffffffffff1602179055508173ffffffffffffffffffffffffffffffffffffffff168173ffffffffffffffffffffffffffffffffffffffff167f8be0079c531659141344cd1fd0a4f28419497f9722a3daafe3b4186f6b6457e060405160405180910390a35050565b620003656200028760201b60201c565b73ffffffffffffffffffffffffffffffffffffffff166200038b620004b760201b60201c565b73ffffffffffffffffffffffffffffffffffffffff1614620003e4576040517f08c379a0000000000000000000000000000000000000000000000000000000008152600401620003db9062000cce565b60405180910390fd5b8060059080519060200190620003fc929190620009cf565b5050565b620004106200028760201b60201c565b73ffffffffffffffffffffffffffffffffffffffff1662000436620004b760201b60201c565b73ffffffffffffffffffffffffffffffffffffffff16146200048f576040517f08c379a0000000000000000000000000000000000000000000000000000000008152600401620004869062000cce565b60405180910390fd5b620004b38282600a60405180602001604052806000815250620004e160201b60201c565b5050565b6000600360009054906101000a900473ffffffffffffffffffffffffffffffffffffffff16905090565b600073ffffffffffffffffffffffffffffffffffffffff168473ffffffffffffffffffffffffffffffffffffffff16141562000554576040517f08c379a00000000000000000000000000000000000000000000000000000000081526004016200054b9062000cf0565b60405180910390fd5b6000620005666200028760201b60201c565b905060006200057b85620006c960201b60201c565b905060006200059085620006c960201b60201c565b9050620005a9836000898585896200079260201b60201c565b8460008088815260200190815260200160002060008973ffffffffffffffffffffffffffffffffffffffff1673ffffffffffffffffffffffffffffffffffffffff16815260200190815260200160002060008282546200060a919062000d81565b925050819055508673ffffffffffffffffffffffffffffffffffffffff16600073ffffffffffffffffffffffffffffffffffffffff168473ffffffffffffffffffffffffffffffffffffffff167fc3d58168c5ae7397731d063d5bbf3d657854427343f4c083240f7aacaa2d0f6289896040516200068a92919062000d12565b60405180910390a4620006a9836000898585896200079a60201b60201c565b620006c083600089898989620007a260201b60201c565b50505050505050565b60606000600167ffffffffffffffff8111156200070f577f4e487b7100000000000000000000000000000000000000000000000000000000600052604160045260246000fd5b6040519080825280602002602001820160405280156200073e5781602001602082028036833780820191505090505b50905082816000815181106200077d577f4e487b7100000000000000000000000000000000000000000000000000000000600052603260045260246000fd5b60200260200101818152505080915050919050565b505050505050565b505050505050565b620007ce8473ffffffffffffffffffffffffffffffffffffffff16620009ac60201b620013681760201c565b15620009a4578373ffffffffffffffffffffffffffffffffffffffff1663f23a6e6187878686866040518663ffffffff1660e01b81526004016200081795949392919062000c02565b602060405180830381600087803b1580156200083257600080fd5b505af19250505080156200086657506040513d601f19601f8201168201806040525081019062000863919062000a96565b60015b62000918576200087562000f77565b806308c379a01415620008d957506200088d620010d0565b806200089a5750620008db565b806040517f08c379a0000000000000000000000000000000000000000000000000000000008152600401620008d0919062000c66565b60405180910390fd5b505b6040517f08c379a00000000000000000000000000000000000000000000000000000000081526004016200090f9062000c8a565b60405180910390fd5b63f23a6e6160e01b7bffffffffffffffffffffffffffffffffffffffffffffffffffffffff1916817bffffffffffffffffffffffffffffffffffffffffffffffffffffffff191614620009a2576040517f08c379a0000000000000000000000000000000000000000000000000000000008152600401620009999062000cac565b60405180910390fd5b505b505050505050565b6000808273ffffffffffffffffffffffffffffffffffffffff163b119050919050565b828054620009dd9062000e7e565b90600052602060002090601f01602090048101928262000a01576000855562000a4d565b82601f1062000a1c57805160ff191683800117855562000a4d565b8280016001018555821562000a4d579182015b8281111562000a4c57825182559160200191906001019062000a2f565b5b50905062000a5c919062000a60565b5090565b5b8082111562000a7b57600081600090555060010162000a61565b5090565b60008151905062000a908162001172565b92915050565b60006020828403121562000aa957600080fd5b600062000ab98482850162000a7f565b91505092915050565b62000acd8162000dde565b82525050565b600062000ae08262000d49565b62000aec818562000d5f565b935062000afe81856020860162000e48565b62000b098162000f9c565b840191505092915050565b600062000b218262000d54565b62000b2d818562000d70565b935062000b3f81856020860162000e48565b62000b4a8162000f9c565b840191505092915050565b600062000b6460348362000d70565b915062000b718262000fba565b604082019050919050565b600062000b8b60288362000d70565b915062000b988262001009565b604082019050919050565b600062000bb260208362000d70565b915062000bbf8262001058565b602082019050919050565b600062000bd960218362000d70565b915062000be68262001081565b604082019050919050565b62000bfc8162000e3e565b82525050565b600060a08201905062000c19600083018862000ac2565b62000c28602083018762000ac2565b62000c37604083018662000bf1565b62000c46606083018562000bf1565b818103608083015262000c5a818462000ad3565b90509695505050505050565b6000602082019050818103600083015262000c82818462000b14565b905092915050565b6000602082019050818103600083015262000ca58162000b55565b9050919050565b6000602082019050818103600083015262000cc78162000b7c565b9050919050565b6000602082019050818103600083015262000ce98162000ba3565b9050919050565b6000602082019050818103600083015262000d0b8162000bca565b9050919050565b600060408201905062000d29600083018562000bf1565b62000d38602083018462000bf1565b9392505050565b6000604051905090565b600081519050919050565b600081519050919050565b600082825260208201905092915050565b600082825260208201905092915050565b600062000d8e8262000e3e565b915062000d9b8362000e3e565b9250827fffffffffffffffffffffffffffffffffffffffffffffffffffffffffffffffff0382111562000dd35762000dd262000eea565b5b828201905092915050565b600062000deb8262000e1e565b9050919050565b60007fffffffff0000000000000000000000000000000000000000000000000000000082169050919050565b600073ffffffffffffffffffffffffffffffffffffffff82169050919050565b6000819050919050565b60005b8381101562000e6857808201518184015260208101905062000e4b565b8381111562000e78576000848401525b50505050565b6000600282049050600182168062000e9757607f821691505b6020821081141562000eae5762000ead62000f19565b5b50919050565b62000ebf8262000f9c565b810181811067ffffffffffffffff8211171562000ee15762000ee062000f48565b5b80604052505050565b7f4e487b7100000000000000000000000000000000000000000000000000000000600052601160045260246000fd5b7f4e487b7100000000000000000000000000000000000000000000000000000000600052602260045260246000fd5b7f4e487b7100000000000000000000000000000000000000000000000000000000600052604160045260246000fd5b600060033d111562000f995760046000803e62000f9660005162000fad565b90505b90565b6000601f19601f8301169050919050565b60008160e01c9050919050565b7f455243313135353a207472616e7366657220746f206e6f6e204552433131353560008201527f526563656976657220696d706c656d656e746572000000000000000000000000602082015250565b7f455243313135353a204552433131353552656365697665722072656a6563746560008201527f6420746f6b656e73000000000000000000000000000000000000000000000000602082015250565b7f4f776e61626c653a2063616c6c6572206973206e6f7420746865206f776e6572600082015250565b7f455243313135353a206d696e7420746f20746865207a65726f2061646472657360008201527f7300000000000000000000000000000000000000000000000000000000000000602082015250565b600060443d1015620010e2576200116f565b620010ec62000d3f565b60043d036004823e80513d602482011167ffffffffffffffff82111715620011165750506200116f565b808201805167ffffffffffffffff8111156200113657505050506200116f565b80602083010160043d038501811115620011555750505050506200116f565b620011668260200185018662000eb4565b82955050505050505b90565b6200117d8162000df2565b81146200118957600080fd5b50565b613d0b806200119c6000396000f3fe608060405234801561001057600080fd5b50600436106101415760003560e01c80636ebeac85116100b8578063c87b56dd1161007c578063c87b56dd1461033c578063da3ef23f1461036c578063e985e9c514610388578063f242432a146103b8578063f2fde38b146103d4578063f4a0a528146103f057610141565b80636ebeac85146102bc578063715018a6146102da5780638da5cb5b146102e4578063a22cb46514610302578063c66828621461031e57610141565b806340c10f191161010a57806340c10f19146101fc5780634e1273f41461021857806351cff8d91461024857806355f804b3146102645780636817c76c146102805780636c0360eb1461029e57610141565b8062fdd58e1461014657806301ffc9a7146101765780630e89341c146101a65780632eb2c2d6146101d65780633b84d9c6146101f2575b600080fd5b610160600480360381019061015b9190612aa1565b61040c565b60405161016d9190613308565b60405180910390f35b610190600480360381019061018b9190612b49565b6104d5565b60405161019d919061312b565b60405180910390f35b6101c060048036038101906101bb9190612bdc565b6105b7565b6040516101cd9190613146565b60405180910390f35b6101f060048036038101906101eb9190612917565b61064b565b005b6101fa6106ec565b005b61021660048036038101906102119190612aa1565b6107b1565b005b610232600480360381019061022d9190612add565b61084d565b60405161023f91906130d2565b60405180910390f35b610262600480360381019061025d91906128b2565b6109fe565b005b61027e60048036038101906102799190612b9b565b610aca565b005b610288610b60565b6040516102959190613308565b60405180910390f35b6102a6610b66565b6040516102b39190613146565b60405180910390f35b6102c4610bf4565b6040516102d1919061312b565b60405180910390f35b6102e2610c07565b005b6102ec610c8f565b6040516102f99190612ff5565b60405180910390f35b61031c60048036038101906103179190612a65565b610cb9565b005b610326610ccf565b6040516103339190613146565b60405180910390f35b61035660048036038101906103519190612bdc565b610d5d565b6040516103639190613146565b60405180910390f35b61038660048036038101906103819190612b9b565b61101f565b005b6103a2600480360381019061039d91906128db565b6110b5565b6040516103af919061312b565b60405180910390f35b6103d260048036038101906103cd91906129d6565b611149565b005b6103ee60048036038101906103e991906128b2565b6111ea565b005b61040a60048036038101906104059190612bdc565b6112e2565b005b60008073ffffffffffffffffffffffffffffffffffffffff168373ffffffffffffffffffffffffffffffffffffffff16141561047d576040517f08c379a0000000000000000000000000000000000000000000000000000000008152600401610474906131a8565b60405180910390fd5b60008083815260200190815260200160002060008473ffffffffffffffffffffffffffffffffffffffff1673ffffffffffffffffffffffffffffffffffffffff16815260200190815260200160002054905092915050565b60007fd9b67a26000000000000000000000000000000000000000000000000000000007bffffffffffffffffffffffffffffffffffffffffffffffffffffffff1916827bffffffffffffffffffffffffffffffffffffffffffffffffffffffff191614806105a057507f0e89341c000000000000000000000000000000000000000000000000000000007bffffffffffffffffffffffffffffffffffffffffffffffffffffffff1916827bffffffffffffffffffffffffffffffffffffffffffffffffffffffff1916145b806105b057506105af8261138b565b5b9050919050565b6060600280546105c69061362d565b80601f01602080910402602001604051908101604052809291908181526020018280546105f29061362d565b801561063f5780601f106106145761010080835404028352916020019161063f565b820191906000526020600020905b81548152906001019060200180831161062257829003601f168201915b50505050509050919050565b6106536113f5565b73ffffffffffffffffffffffffffffffffffffffff168573ffffffffffffffffffffffffffffffffffffffff1614806106995750610698856106936113f5565b6110b5565b5b6106d8576040517f08c379a00000000000000000000000000000000000000000000000000000000081526004016106cf90613228565b60405180910390fd5b6106e585858585856113fd565b5050505050565b6106f46113f5565b73ffffffffffffffffffffffffffffffffffffffff16610712610c8f565b73ffffffffffffffffffffffffffffffffffffffff1614610768576040517f08c379a000000000000000000000000000000000000000000000000000000000815260040161075f90613268565b60405180910390fd5b60001515600360149054906101000a900460ff16151514156107af57600360149054906101000a900460ff1615600360146101000a81548160ff0219169083151502179055505b565b6107b96113f5565b73ffffffffffffffffffffffffffffffffffffffff166107d7610c8f565b73ffffffffffffffffffffffffffffffffffffffff161461082d576040517f08c379a000000000000000000000000000000000000000000000000000000000815260040161082490613268565b60405180910390fd5b6108498282600a6040518060200160405280600081525061176b565b5050565b60608151835114610893576040517f08c379a000000000000000000000000000000000000000000000000000000000815260040161088a906132a8565b60405180910390fd5b6000835167ffffffffffffffff8111156108d6577f4e487b7100000000000000000000000000000000000000000000000000000000600052604160045260246000fd5b6040519080825280602002602001820160405280156109045781602001602082028036833780820191505090505b50905060005b84518110156109f35761099d85828151811061094f577f4e487b7100000000000000000000000000000000000000000000000000000000600052603260045260246000fd5b6020026020010151858381518110610990577f4e487b7100000000000000000000000000000000000000000000000000000000600052603260045260246000fd5b602002602001015161040c565b8282815181106109d6577f4e487b7100000000000000000000000000000000000000000000000000000000600052603260045260246000fd5b602002602001018181525050806109ec90613690565b905061090a565b508091505092915050565b610a066113f5565b73ffffffffffffffffffffffffffffffffffffffff16610a24610c8f565b73ffffffffffffffffffffffffffffffffffffffff1614610a7a576040517f08c379a0000000000000000000000000000000000000000000000000000000008152600401610a7190613268565b60405180910390fd5b60004790508173ffffffffffffffffffffffffffffffffffffffff166108fc829081150290604051600060405180830381858888f19350505050158015610ac5573d6000803e3d6000fd5b505050565b610ad26113f5565b73ffffffffffffffffffffffffffffffffffffffff16610af0610c8f565b73ffffffffffffffffffffffffffffffffffffffff1614610b46576040517f08c379a0000000000000000000000000000000000000000000000000000000008152600401610b3d90613268565b60405180910390fd5b8060059080519060200190610b5c9291906125aa565b5050565b60045481565b60058054610b739061362d565b80601f0160208091040260200160405190810160405280929190818152602001828054610b9f9061362d565b8015610bec5780601f10610bc157610100808354040283529160200191610bec565b820191906000526020600020905b815481529060010190602001808311610bcf57829003601f168201915b505050505081565b600360149054906101000a900460ff1681565b610c0f6113f5565b73ffffffffffffffffffffffffffffffffffffffff16610c2d610c8f565b73ffffffffffffffffffffffffffffffffffffffff1614610c83576040517f08c379a0000000000000000000000000000000000000000000000000000000008152600401610c7a90613268565b60405180910390fd5b610c8d600061191c565b565b6000600360009054906101000a900473ffffffffffffffffffffffffffffffffffffffff16905090565b610ccb610cc46113f5565b83836119e2565b5050565b60068054610cdc9061362d565b80601f0160208091040260200160405190810160405280929190818152602001828054610d089061362d565b8015610d555780601f10610d2a57610100808354040283529160200191610d55565b820191906000526020600020905b815481529060010190602001808311610d3857829003601f168201915b505050505081565b606060001515600360149054906101000a900460ff1615151415610ea057610e0e60088054610d8b9061362d565b80601f0160208091040260200160405190810160405280929190818152602001828054610db79061362d565b8015610e045780601f10610dd957610100808354040283529160200191610e04565b820191906000526020600020905b815481529060010190602001808311610de757829003601f168201915b5050505050611b4f565b60088054610e1b9061362d565b80601f0160208091040260200160405190810160405280929190818152602001828054610e479061362d565b8015610e945780601f10610e6957610100808354040283529160200191610e94565b820191906000526020600020905b815481529060010190602001808311610e7757829003601f168201915b5050505050905061101a565b6000600760008481526020019081526020016000208054610ec09061362d565b80601f0160208091040260200160405190810160405280929190818152602001828054610eec9061362d565b8015610f395780601f10610f0e57610100808354040283529160200191610f39565b820191906000526020600020905b815481529060010190602001808311610f1c57829003601f168201915b505050505090506000610f4a611be8565b90506000604051806020016040528060008152509050600082511415610f8757610f7381611c7a565b610f7c83611b4f565b82935050505061101a565b600083511115610fd2578183604051602001610fa4929190612fa0565b6040516020818303038152906040529050610fbe81611c7a565b610fc781611b4f565b80935050505061101a565b81610fdc86611c94565b6006604051602001610ff093929190612fc4565b604051602081830303815290604052905061100a81611c7a565b61101381611b4f565b8093505050505b919050565b6110276113f5565b73ffffffffffffffffffffffffffffffffffffffff16611045610c8f565b73ffffffffffffffffffffffffffffffffffffffff161461109b576040517f08c379a000000000000000000000000000000000000000000000000000000000815260040161109290613268565b60405180910390fd5b80600690805190602001906110b19291906125aa565b5050565b6000600160008473ffffffffffffffffffffffffffffffffffffffff1673ffffffffffffffffffffffffffffffffffffffff16815260200190815260200160002060008373ffffffffffffffffffffffffffffffffffffffff1673ffffffffffffffffffffffffffffffffffffffff16815260200190815260200160002060009054906101000a900460ff16905092915050565b6111516113f5565b73ffffffffffffffffffffffffffffffffffffffff168573ffffffffffffffffffffffffffffffffffffffff1614806111975750611196856111916113f5565b6110b5565b5b6111d6576040517f08c379a00000000000000000000000000000000000000000000000000000000081526004016111cd906131e8565b60405180910390fd5b6111e38585858585611e41565b5050505050565b6111f26113f5565b73ffffffffffffffffffffffffffffffffffffffff16611210610c8f565b73ffffffffffffffffffffffffffffffffffffffff1614611266576040517f08c379a000000000000000000000000000000000000000000000000000000000815260040161125d90613268565b60405180910390fd5b600073ffffffffffffffffffffffffffffffffffffffff168173ffffffffffffffffffffffffffffffffffffffff1614156112d6576040517f08c379a00000000000000000000000000000000000000000000000000000000081526004016112cd906131c8565b60405180910390fd5b6112df8161191c565b50565b6112ea6113f5565b73ffffffffffffffffffffffffffffffffffffffff16611308610c8f565b73ffffffffffffffffffffffffffffffffffffffff161461135e576040517f08c379a000000000000000000000000000000000000000000000000000000000815260040161135590613268565b60405180910390fd5b8060048190555050565b6000808273ffffffffffffffffffffffffffffffffffffffff163b119050919050565b60007f01ffc9a7000000000000000000000000000000000000000000000000000000007bffffffffffffffffffffffffffffffffffffffffffffffffffffffff1916827bffffffffffffffffffffffffffffffffffffffffffffffffffffffff1916149050919050565b600033905090565b8151835114611441576040517f08c379a0000000000000000000000000000000000000000000000000000000008152600401611438906132c8565b60405180910390fd5b600073ffffffffffffffffffffffffffffffffffffffff168473ffffffffffffffffffffffffffffffffffffffff1614156114b1576040517f08c379a00000000000000000000000000000000000000000000000000000000081526004016114a890613208565b60405180910390fd5b60006114bb6113f5565b90506114cb8187878787876120dd565b60005b84518110156116c8576000858281518110611512577f4e487b7100000000000000000000000000000000000000000000000000000000600052603260045260246000fd5b602002602001015190506000858381518110611557577f4e487b7100000000000000000000000000000000000000000000000000000000600052603260045260246000fd5b60200260200101519050600080600084815260200190815260200160002060008b73ffffffffffffffffffffffffffffffffffffffff1673ffffffffffffffffffffffffffffffffffffffff168152602001908152602001600020549050818110156115f8576040517f08c379a00000000000000000000000000000000000000000000000000000000081526004016115ef90613248565b60405180910390fd5b81810360008085815260200190815260200160002060008c73ffffffffffffffffffffffffffffffffffffffff1673ffffffffffffffffffffffffffffffffffffffff168152602001908152602001600020819055508160008085815260200190815260200160002060008b73ffffffffffffffffffffffffffffffffffffffff1673ffffffffffffffffffffffffffffffffffffffff16815260200190815260200160002060008282546116ad91906134bc565b92505081905550505050806116c190613690565b90506114ce565b508473ffffffffffffffffffffffffffffffffffffffff168673ffffffffffffffffffffffffffffffffffffffff168273ffffffffffffffffffffffffffffffffffffffff167f4a39dc06d4c0dbc64b70af90fd698a233a518aa5d07e595d983b8c0526c8f7fb878760405161173f9291906130f4565b60405180910390a46117558187878787876120e5565b6117638187878787876120ed565b505050505050565b600073ffffffffffffffffffffffffffffffffffffffff168473ffffffffffffffffffffffffffffffffffffffff1614156117db576040517f08c379a00000000000000000000000000000000000000000000000000000000081526004016117d2906132e8565b60405180910390fd5b60006117e56113f5565b905060006117f2856122d4565b905060006117ff856122d4565b9050611810836000898585896120dd565b8460008088815260200190815260200160002060008973ffffffffffffffffffffffffffffffffffffffff1673ffffffffffffffffffffffffffffffffffffffff168152602001908152602001600020600082825461186f91906134bc565b925050819055508673ffffffffffffffffffffffffffffffffffffffff16600073ffffffffffffffffffffffffffffffffffffffff168473ffffffffffffffffffffffffffffffffffffffff167fc3d58168c5ae7397731d063d5bbf3d657854427343f4c083240f7aacaa2d0f6289896040516118ed929190613323565b60405180910390a4611904836000898585896120e5565b6119138360008989898961239a565b50505050505050565b6000600360009054906101000a900473ffffffffffffffffffffffffffffffffffffffff16905081600360006101000a81548173ffffffffffffffffffffffffffffffffffffffff021916908373ffffffffffffffffffffffffffffffffffffffff1602179055508173ffffffffffffffffffffffffffffffffffffffff168173ffffffffffffffffffffffffffffffffffffffff167f8be0079c531659141344cd1fd0a4f28419497f9722a3daafe3b4186f6b6457e060405160405180910390a35050565b8173ffffffffffffffffffffffffffffffffffffffff168373ffffffffffffffffffffffffffffffffffffffff161415611a51576040517f08c379a0000000000000000000000000000000000000000000000000000000008152600401611a4890613288565b60405180910390fd5b80600160008573ffffffffffffffffffffffffffffffffffffffff1673ffffffffffffffffffffffffffffffffffffffff16815260200190815260200160002060008473ffffffffffffffffffffffffffffffffffffffff1673ffffffffffffffffffffffffffffffffffffffff16815260200190815260200160002060006101000a81548160ff0219169083151502179055508173ffffffffffffffffffffffffffffffffffffffff168373ffffffffffffffffffffffffffffffffffffffff167f17307eab39ab6107e8899845ad3d59bd9653f200f220920489ca2b5937696c3183604051611b42919061312b565b60405180910390a3505050565b611be581604051602401611b639190613146565b6040516020818303038152906040527f41304fac000000000000000000000000000000000000000000000000000000007bffffffffffffffffffffffffffffffffffffffffffffffffffffffff19166020820180517bffffffffffffffffffffffffffffffffffffffffffffffffffffffff8381831617835250505050612581565b50565b606060058054611bf79061362d565b80601f0160208091040260200160405190810160405280929190818152602001828054611c239061362d565b8015611c705780601f10611c4557610100808354040283529160200191611c70565b820191906000526020600020905b815481529060010190602001808311611c5357829003601f168201915b5050505050905090565b8060029080519060200190611c909291906125aa565b5050565b60606000821415611cdc576040518060400160405280600181526020017f30000000000000000000000000000000000000000000000000000000000000008152509050611e3c565b600082905060005b60008214611d0e578080611cf790613690565b915050600a82611d079190613512565b9150611ce4565b60008167ffffffffffffffff811115611d50577f4e487b7100000000000000000000000000000000000000000000000000000000600052604160045260246000fd5b6040519080825280601f01601f191660200182016040528015611d825781602001600182028036833780820191505090505b5090505b60008514611e3557600182611d9b9190613543565b9150600a85611daa91906136d9565b6030611db691906134bc565b60f81b818381518110611df2577f4e487b7100000000000000000000000000000000000000000000000000000000600052603260045260246000fd5b60200101907effffffffffffffffffffffffffffffffffffffffffffffffffffffffffffff1916908160001a905350600a85611e2e9190613512565b9450611d86565b8093505050505b919050565b600073ffffffffffffffffffffffffffffffffffffffff168473ffffffffffffffffffffffffffffffffffffffff161415611eb1576040517f08c379a0000000000000000000000000000000000000000000000000000000008152600401611ea890613208565b60405180910390fd5b6000611ebb6113f5565b90506000611ec8856122d4565b90506000611ed5856122d4565b9050611ee58389898585896120dd565b600080600088815260200190815260200160002060008a73ffffffffffffffffffffffffffffffffffffffff1673ffffffffffffffffffffffffffffffffffffffff16815260200190815260200160002054905085811015611f7c576040517f08c379a0000000000000000000000000000000000000000000000000000000008152600401611f7390613248565b60405180910390fd5b85810360008089815260200190815260200160002060008b73ffffffffffffffffffffffffffffffffffffffff1673ffffffffffffffffffffffffffffffffffffffff168152602001908152602001600020819055508560008089815260200190815260200160002060008a73ffffffffffffffffffffffffffffffffffffffff1673ffffffffffffffffffffffffffffffffffffffff168152602001908152602001600020600082825461203191906134bc565b925050819055508773ffffffffffffffffffffffffffffffffffffffff168973ffffffffffffffffffffffffffffffffffffffff168573ffffffffffffffffffffffffffffffffffffffff167fc3d58168c5ae7397731d063d5bbf3d657854427343f4c083240f7aacaa2d0f628a8a6040516120ae929190613323565b60405180910390a46120c4848a8a86868a6120e5565b6120d2848a8a8a8a8a61239a565b505050505050505050565b505050505050565b505050505050565b61210c8473ffffffffffffffffffffffffffffffffffffffff16611368565b156122cc578373ffffffffffffffffffffffffffffffffffffffff1663bc197c8187878686866040518663ffffffff1660e01b8152600401612152959493929190613010565b602060405180830381600087803b15801561216c57600080fd5b505af192505050801561219d57506040513d601f19601f8201168201806040525081019061219a9190612b72565b60015b612243576121a96137c6565b806308c379a0141561220657506121be613be3565b806121c95750612208565b806040517f08c379a00000000000000000000000000000000000000000000000000000000081526004016121fd9190613146565b60405180910390fd5b505b6040517f08c379a000000000000000000000000000000000000000000000000000000000815260040161223a90613168565b60405180910390fd5b63bc197c8160e01b7bffffffffffffffffffffffffffffffffffffffffffffffffffffffff1916817bffffffffffffffffffffffffffffffffffffffffffffffffffffffff1916146122ca576040517f08c379a00000000000000000000000000000000000000000000000000000000081526004016122c190613188565b60405180910390fd5b505b505050505050565b60606000600167ffffffffffffffff811115612319577f4e487b7100000000000000000000000000000000000000000000000000000000600052604160045260246000fd5b6040519080825280602002602001820160405280156123475781602001602082028036833780820191505090505b5090508281600081518110612385577f4e487b7100000000000000000000000000000000000000000000000000000000600052603260045260246000fd5b60200260200101818152505080915050919050565b6123b98473ffffffffffffffffffffffffffffffffffffffff16611368565b15612579578373ffffffffffffffffffffffffffffffffffffffff1663f23a6e6187878686866040518663ffffffff1660e01b81526004016123ff959493929190613078565b602060405180830381600087803b15801561241957600080fd5b505af192505050801561244a57506040513d601f19601f820116820180604052508101906124479190612b72565b60015b6124f0576124566137c6565b806308c379a014156124b3575061246b613be3565b8061247657506124b5565b806040517f08c379a00000000000000000000000000000000000000000000000000000000081526004016124aa9190613146565b60405180910390fd5b505b6040517f08c379a00000000000000000000000000000000000000000000000000000000081526004016124e790613168565b60405180910390fd5b63f23a6e6160e01b7bffffffffffffffffffffffffffffffffffffffffffffffffffffffff1916817bffffffffffffffffffffffffffffffffffffffffffffffffffffffff191614612577576040517f08c379a000000000000000000000000000000000000000000000000000000000815260040161256e90613188565b60405180910390fd5b505b505050505050565b60008151905060006a636f6e736f6c652e6c6f679050602083016000808483855afa5050505050565b8280546125b69061362d565b90600052602060002090601f0160209004810192826125d8576000855561261f565b82601f106125f157805160ff191683800117855561261f565b8280016001018555821561261f579182015b8281111561261e578251825591602001919060010190612603565b5b50905061262c9190612630565b5090565b5b80821115612649576000816000905550600101612631565b5090565b600061266061265b84613371565b61334c565b9050808382526020820190508285602086028201111561267f57600080fd5b60005b858110156126af578161269588826127a1565b845260208401935060208301925050600181019050612682565b5050509392505050565b60006126cc6126c78461339d565b61334c565b905080838252602082019050828560208602820111156126eb57600080fd5b60005b8581101561271b5781612701888261289d565b8452602084019350602083019250506001810190506126ee565b5050509392505050565b6000612738612733846133c9565b61334c565b90508281526020810184848401111561275057600080fd5b61275b8482856135eb565b509392505050565b6000612776612771846133fa565b61334c565b90508281526020810184848401111561278e57600080fd5b6127998482856135eb565b509392505050565b6000813590506127b081613c79565b92915050565b600082601f8301126127c757600080fd5b81356127d784826020860161264d565b91505092915050565b600082601f8301126127f157600080fd5b81356128018482602086016126b9565b91505092915050565b60008135905061281981613c90565b92915050565b60008135905061282e81613ca7565b92915050565b60008151905061284381613ca7565b92915050565b600082601f83011261285a57600080fd5b813561286a848260208601612725565b91505092915050565b600082601f83011261288457600080fd5b8135612894848260208601612763565b91505092915050565b6000813590506128ac81613cbe565b92915050565b6000602082840312156128c457600080fd5b60006128d2848285016127a1565b91505092915050565b600080604083850312156128ee57600080fd5b60006128fc858286016127a1565b925050602061290d858286016127a1565b9150509250929050565b600080600080600060a0868803121561292f57600080fd5b600061293d888289016127a1565b955050602061294e888289016127a1565b945050604086013567ffffffffffffffff81111561296b57600080fd5b612977888289016127e0565b935050606086013567ffffffffffffffff81111561299457600080fd5b6129a0888289016127e0565b925050608086013567ffffffffffffffff8111156129bd57600080fd5b6129c988828901612849565b9150509295509295909350565b600080600080600060a086880312156129ee57600080fd5b60006129fc888289016127a1565b9550506020612a0d888289016127a1565b9450506040612a1e8882890161289d565b9350506060612a2f8882890161289d565b925050608086013567ffffffffffffffff811115612a4c57600080fd5b612a5888828901612849565b9150509295509295909350565b60008060408385031215612a7857600080fd5b6000612a86858286016127a1565b9250506020612a978582860161280a565b9150509250929050565b60008060408385031215612ab457600080fd5b6000612ac2858286016127a1565b9250506020612ad38582860161289d565b9150509250929050565b60008060408385031215612af057600080fd5b600083013567ffffffffffffffff811115612b0a57600080fd5b612b16858286016127b6565b925050602083013567ffffffffffffffff811115612b3357600080fd5b612b3f858286016127e0565b9150509250929050565b600060208284031215612b5b57600080fd5b6000612b698482850161281f565b91505092915050565b600060208284031215612b8457600080fd5b6000612b9284828501612834565b91505092915050565b600060208284031215612bad57600080fd5b600082013567ffffffffffffffff811115612bc757600080fd5b612bd384828501612873565b91505092915050565b600060208284031215612bee57600080fd5b6000612bfc8482850161289d565b91505092915050565b6000612c118383612f82565b60208301905092915050565b612c2681613577565b82525050565b6000612c3782613450565b612c41818561347e565b9350612c4c8361342b565b8060005b83811015612c7d578151612c648882612c05565b9750612c6f83613471565b925050600181019050612c50565b5085935050505092915050565b612c9381613589565b82525050565b6000612ca48261345b565b612cae818561348f565b9350612cbe8185602086016135fa565b612cc7816137e8565b840191505092915050565b6000612cdd82613466565b612ce781856134a0565b9350612cf78185602086016135fa565b612d00816137e8565b840191505092915050565b6000612d1682613466565b612d2081856134b1565b9350612d308185602086016135fa565b80840191505092915050565b60008154612d498161362d565b612d5381866134b1565b94506001821660008114612d6e5760018114612d7f57612db2565b60ff19831686528186019350612db2565b612d888561343b565b60005b83811015612daa57815481890152600182019150602081019050612d8b565b838801955050505b50505092915050565b6000612dc86034836134a0565b9150612dd382613806565b604082019050919050565b6000612deb6028836134a0565b9150612df682613855565b604082019050919050565b6000612e0e602b836134a0565b9150612e19826138a4565b604082019050919050565b6000612e316026836134a0565b9150612e3c826138f3565b604082019050919050565b6000612e546029836134a0565b9150612e5f82613942565b604082019050919050565b6000612e776025836134a0565b9150612e8282613991565b604082019050919050565b6000612e9a6032836134a0565b9150612ea5826139e0565b604082019050919050565b6000612ebd602a836134a0565b9150612ec882613a2f565b604082019050919050565b6000612ee06020836134a0565b9150612eeb82613a7e565b602082019050919050565b6000612f036029836134a0565b9150612f0e82613aa7565b604082019050919050565b6000612f266029836134a0565b9150612f3182613af6565b604082019050919050565b6000612f496028836134a0565b9150612f5482613b45565b604082019050919050565b6000612f6c6021836134a0565b9150612f7782613b94565b604082019050919050565b612f8b816135e1565b82525050565b612f9a816135e1565b82525050565b6000612fac8285612d0b565b9150612fb88284612d0b565b91508190509392505050565b6000612fd08286612d0b565b9150612fdc8285612d0b565b9150612fe88284612d3c565b9150819050949350505050565b600060208201905061300a6000830184612c1d565b92915050565b600060a0820190506130256000830188612c1d565b6130326020830187612c1d565b81810360408301526130448186612c2c565b905081810360608301526130588185612c2c565b9050818103608083015261306c8184612c99565b90509695505050505050565b600060a08201905061308d6000830188612c1d565b61309a6020830187612c1d565b6130a76040830186612f91565b6130b46060830185612f91565b81810360808301526130c68184612c99565b90509695505050505050565b600060208201905081810360008301526130ec8184612c2c565b905092915050565b6000604082019050818103600083015261310e8185612c2c565b905081810360208301526131228184612c2c565b90509392505050565b60006020820190506131406000830184612c8a565b92915050565b600060208201905081810360008301526131608184612cd2565b905092915050565b6000602082019050818103600083015261318181612dbb565b9050919050565b600060208201905081810360008301526131a181612dde565b9050919050565b600060208201905081810360008301526131c181612e01565b9050919050565b600060208201905081810360008301526131e181612e24565b9050919050565b6000602082019050818103600083015261320181612e47565b9050919050565b6000602082019050818103600083015261322181612e6a565b9050919050565b6000602082019050818103600083015261324181612e8d565b9050919050565b6000602082019050818103600083015261326181612eb0565b9050919050565b6000602082019050818103600083015261328181612ed3565b9050919050565b600060208201905081810360008301526132a181612ef6565b9050919050565b600060208201905081810360008301526132c181612f19565b9050919050565b600060208201905081810360008301526132e181612f3c565b9050919050565b6000602082019050818103600083015261330181612f5f565b9050919050565b600060208201905061331d6000830184612f91565b92915050565b60006040820190506133386000830185612f91565b6133456020830184612f91565b9392505050565b6000613356613367565b9050613362828261365f565b919050565b6000604051905090565b600067ffffffffffffffff82111561338c5761338b613797565b5b602082029050602081019050919050565b600067ffffffffffffffff8211156133b8576133b7613797565b5b602082029050602081019050919050565b600067ffffffffffffffff8211156133e4576133e3613797565b5b6133ed826137e8565b9050602081019050919050565b600067ffffffffffffffff82111561341557613414613797565b5b61341e826137e8565b9050602081019050919050565b6000819050602082019050919050565b60008190508160005260206000209050919050565b600081519050919050565b600081519050919050565b600081519050919050565b6000602082019050919050565b600082825260208201905092915050565b600082825260208201905092915050565b600082825260208201905092915050565b600081905092915050565b60006134c7826135e1565b91506134d2836135e1565b9250827fffffffffffffffffffffffffffffffffffffffffffffffffffffffffffffffff038211156135075761350661370a565b5b828201905092915050565b600061351d826135e1565b9150613528836135e1565b92508261353857613537613739565b5b828204905092915050565b600061354e826135e1565b9150613559836135e1565b92508282101561356c5761356b61370a565b5b828203905092915050565b6000613582826135c1565b9050919050565b60008115159050919050565b60007fffffffff0000000000000000000000000000000000000000000000000000000082169050919050565b600073ffffffffffffffffffffffffffffffffffffffff82169050919050565b6000819050919050565b82818337600083830152505050565b60005b838110156136185780820151818401526020810190506135fd565b83811115613627576000848401525b50505050565b6000600282049050600182168061364557607f821691505b6020821081141561365957613658613768565b5b50919050565b613668826137e8565b810181811067ffffffffffffffff8211171561368757613686613797565b5b80604052505050565b600061369b826135e1565b91507fffffffffffffffffffffffffffffffffffffffffffffffffffffffffffffffff8214156136ce576136cd61370a565b5b600182019050919050565b60006136e4826135e1565b91506136ef836135e1565b9250826136ff576136fe613739565b5b828206905092915050565b7f4e487b7100000000000000000000000000000000000000000000000000000000600052601160045260246000fd5b7f4e487b7100000000000000000000000000000000000000000000000000000000600052601260045260246000fd5b7f4e487b7100000000000000000000000000000000000000000000000000000000600052602260045260246000fd5b7f4e487b7100000000000000000000000000000000000000000000000000000000600052604160045260246000fd5b600060033d11156137e55760046000803e6137e26000516137f9565b90505b90565b6000601f19601f8301169050919050565b60008160e01c9050919050565b7f455243313135353a207472616e7366657220746f206e6f6e204552433131353560008201527f526563656976657220696d706c656d656e746572000000000000000000000000602082015250565b7f455243313135353a204552433131353552656365697665722072656a6563746560008201527f6420746f6b656e73000000000000000000000000000000000000000000000000602082015250565b7f455243313135353a2062616c616e636520717565727920666f7220746865207a60008201527f65726f2061646472657373000000000000000000000000000000000000000000602082015250565b7f4f776e61626c653a206e6577206f776e657220697320746865207a65726f206160008201527f6464726573730000000000000000000000000000000000000000000000000000602082015250565b7f455243313135353a2063616c6c6572206973206e6f74206f776e6572206e6f7260008201527f20617070726f7665640000000000000000000000000000000000000000000000602082015250565b7f455243313135353a207472616e7366657220746f20746865207a65726f20616460008201527f6472657373000000000000000000000000000000000000000000000000000000602082015250565b7f455243313135353a207472616e736665722063616c6c6572206973206e6f742060008201527f6f776e6572206e6f7220617070726f7665640000000000000000000000000000602082015250565b7f455243313135353a20696e73756666696369656e742062616c616e636520666f60008201527f72207472616e7366657200000000000000000000000000000000000000000000602082015250565b7f4f776e61626c653a2063616c6c6572206973206e6f7420746865206f776e6572600082015250565b7f455243313135353a2073657474696e6720617070726f76616c2073746174757360008201527f20666f722073656c660000000000000000000000000000000000000000000000602082015250565b7f455243313135353a206163636f756e747320616e6420696473206c656e67746860008201527f206d69736d617463680000000000000000000000000000000000000000000000602082015250565b7f455243313135353a2069647320616e6420616d6f756e7473206c656e6774682060008201527f6d69736d61746368000000000000000000000000000000000000000000000000602082015250565b7f455243313135353a206d696e7420746f20746865207a65726f2061646472657360008201527f7300000000000000000000000000000000000000000000000000000000000000602082015250565b600060443d1015613bf357613c76565b613bfb613367565b60043d036004823e80513d602482011167ffffffffffffffff82111715613c23575050613c76565b808201805167ffffffffffffffff811115613c415750505050613c76565b80602083010160043d038501811115613c5e575050505050613c76565b613c6d8260200185018661365f565b82955050505050505b90565b613c8281613577565b8114613c8d57600080fd5b50565b613c9981613589565b8114613ca457600080fd5b50565b613cb081613595565b8114613cbb57600080fd5b50565b613cc7816135e1565b8114613cd257600080fd5b5056fea26469706673582212209131ba115194cc9bc53f40609ba275290768d99e05efa6112642d6f4ae72bd5f64736f6c63430008040033697066733a2f2f516d6262436b626d5a5462716f7077735944533647327076433457325565515a595a7275776e4e7a6158794633382f697066733a2f2f516d6138764e424245467859374c4863704e4e5768787a563244526e77663178626b3441527878675948474b7458",
  "linkReferences": {},
  "deployedLinkReferences": {}
}