{
  "_format": "hh-sol-artifact-1",
  "contractName": "PuzzleNFT",
  "sourceName": "contracts/BlindBox.sol",
  "abi": [
    {
      "inputs": [],
      "stateMutability": "nonpayable",
      "type": "constructor"
    },
    {
      "anonymous": false,
      "inputs": [
        {
          "indexed": true,
          "internalType": "address",
          "name": "account",
          "type": "address"
        },
        {
          "indexed": true,
          "internalType": "address",
          "name": "operator",
          "type": "address"
        },
        {
          "indexed": false,
          "internalType": "bool",
          "name": "approved",
          "type": "bool"
        }
      ],
      "name": "ApprovalForAll",
      "type": "event"
    },
    {
      "anonymous": false,
      "inputs": [
        {
          "indexed": true,
          "internalType": "address",
          "name": "previousOwner",
          "type": "address"
        },
        {
          "indexed": true,
          "internalType": "address",
          "name": "newOwner",
          "type": "address"
        }
      ],
      "name": "OwnershipTransferred",
      "type": "event"
    },
    {
      "anonymous": false,
      "inputs": [
        {
          "indexed": true,
          "internalType": "address",
          "name": "operator",
          "type": "address"
        },
        {
          "indexed": true,
          "internalType": "address",
          "name": "from",
          "type": "address"
        },
        {
          "indexed": true,
          "internalType": "address",
          "name": "to",
          "type": "address"
        },
        {
          "indexed": false,
          "internalType": "uint256[]",
          "name": "ids",
          "type": "uint256[]"
        },
        {
          "indexed": false,
          "internalType": "uint256[]",
          "name": "values",
          "type": "uint256[]"
        }
      ],
      "name": "TransferBatch",
      "type": "event"
    },
    {
      "anonymous": false,
      "inputs": [
        {
          "indexed": true,
          "internalType": "address",
          "name": "operator",
          "type": "address"
        },
        {
          "indexed": true,
          "internalType": "address",
          "name": "from",
          "type": "address"
        },
        {
          "indexed": true,
          "internalType": "address",
          "name": "to",
          "type": "address"
        },
        {
          "indexed": false,
          "internalType": "uint256",
          "name": "id",
          "type": "uint256"
        },
        {
          "indexed": false,
          "internalType": "uint256",
          "name": "value",
          "type": "uint256"
        }
      ],
      "name": "TransferSingle",
      "type": "event"
    },
    {
      "anonymous": false,
      "inputs": [
        {
          "indexed": false,
          "internalType": "string",
          "name": "value",
          "type": "string"
        },
        {
          "indexed": true,
          "internalType": "uint256",
          "name": "id",
          "type": "uint256"
        }
      ],
      "name": "URI",
      "type": "event"
    },
    {
      "inputs": [
        {
          "internalType": "address",
          "name": "account",
          "type": "address"
        },
        {
          "internalType": "uint256",
          "name": "id",
          "type": "uint256"
        }
      ],
      "name": "balanceOf",
      "outputs": [
        {
          "internalType": "uint256",
          "name": "",
          "type": "uint256"
        }
      ],
      "stateMutability": "view",
      "type": "function"
    },
    {
      "inputs": [
        {
          "internalType": "address[]",
          "name": "accounts",
          "type": "address[]"
        },
        {
          "internalType": "uint256[]",
          "name": "ids",
          "type": "uint256[]"
        }
      ],
      "name": "balanceOfBatch",
      "outputs": [
        {
          "internalType": "uint256[]",
          "name": "",
          "type": "uint256[]"
        }
      ],
      "stateMutability": "view",
      "type": "function"
    },
    {
      "inputs": [
        {
          "internalType": "address",
          "name": "account",
          "type": "address"
        },
        {
          "internalType": "address",
          "name": "operator",
          "type": "address"
        }
      ],
      "name": "isApprovedForAll",
      "outputs": [
        {
          "internalType": "bool",
          "name": "",
          "type": "bool"
        }
      ],
      "stateMutability": "view",
      "type": "function"
    },
    {
      "inputs": [
        {
          "internalType": "address",
          "name": "account",
          "type": "address"
        },
        {
          "internalType": "uint256",
          "name": "id",
          "type": "uint256"
        }
      ],
      "name": "mint",
      "outputs": [],
      "stateMutability": "nonpayable",
      "type": "function"
    },
    {
      "inputs": [],
      "name": "owner",
      "outputs": [
        {
          "internalType": "address",
          "name": "",
          "type": "address"
        }
      ],
      "stateMutability": "view",
      "type": "function"
    },
    {
      "inputs": [],
      "name": "renounceOwnership",
      "outputs": [],
      "stateMutability": "nonpayable",
      "type": "function"
    },
    {
      "inputs": [
        {
          "internalType": "address",
          "name": "from",
          "type": "address"
        },
        {
          "internalType": "address",
          "name": "to",
          "type": "address"
        },
        {
          "internalType": "uint256[]",
          "name": "ids",
          "type": "uint256[]"
        },
        {
          "internalType": "uint256[]",
          "name": "amounts",
          "type": "uint256[]"
        },
        {
          "internalType": "bytes",
          "name": "data",
          "type": "bytes"
        }
      ],
      "name": "safeBatchTransferFrom",
      "outputs": [],
      "stateMutability": "nonpayable",
      "type": "function"
    },
    {
      "inputs": [
        {
          "internalType": "address",
          "name": "from",
          "type": "address"
        },
        {
          "internalType": "address",
          "name": "to",
          "type": "address"
        },
        {
          "internalType": "uint256",
          "name": "id",
          "type": "uint256"
        },
        {
          "internalType": "uint256",
          "name": "amount",
          "type": "uint256"
        },
        {
          "internalType": "bytes",
          "name": "data",
          "type": "bytes"
        }
      ],
      "name": "safeTransferFrom",
      "outputs": [],
      "stateMutability": "nonpayable",
      "type": "function"
    },
    {
      "inputs": [
        {
          "internalType": "address",
          "name": "operator",
          "type": "address"
        },
        {
          "internalType": "bool",
          "name": "approved",
          "type": "bool"
        }
      ],
      "name": "setApprovalForAll",
      "outputs": [],
      "stateMutability": "nonpayable",
      "type": "function"
    },
    {
      "inputs": [
        {
          "internalType": "uint256",
          "name": "id",
          "type": "uint256"
        }
      ],
      "name": "setBlindBoxClosed",
      "outputs": [],
      "stateMutability": "nonpayable",
      "type": "function"
    },
    {
      "inputs": [
        {
          "internalType": "uint256",
          "name": "id",
          "type": "uint256"
        }
      ],
      "name": "setBlindBoxOpened",
      "outputs": [],
      "stateMutability": "nonpayable",
      "type": "function"
    },
    {
      "inputs": [
        {
          "internalType": "bytes4",
          "name": "interfaceId",
          "type": "bytes4"
        }
      ],
      "name": "supportsInterface",
      "outputs": [
        {
          "internalType": "bool",
          "name": "",
          "type": "bool"
        }
      ],
      "stateMutability": "view",
      "type": "function"
    },
    {
      "inputs": [
        {
          "internalType": "address",
          "name": "newOwner",
          "type": "address"
        }
      ],
      "name": "transferOwnership",
      "outputs": [],
      "stateMutability": "nonpayable",
      "type": "function"
    },
    {
      "inputs": [
        {
          "internalType": "uint256",
          "name": "",
          "type": "uint256"
        }
      ],
      "name": "uri",
      "outputs": [
        {
          "internalType": "string",
          "name": "",
          "type": "string"
        }
      ],
      "stateMutability": "view",
      "type": "function"
    }
  ],
  "bytecode": "0x60806040526040518060800160405280605081526020016200387d605091396005908051906020019062000035929190620001d0565b506040518060800160405280604a815260200162003833604a91396006908051906020019062000067929190620001d0565b5060405180602001604052806000815250600790805190602001906200008f929190620001d0565b503480156200009d57600080fd5b5060405180602001604052806000815250620000bf81620000e660201b60201c565b50620000e0620000d46200010260201b60201c565b6200010a60201b60201c565b620002e5565b8060029080519060200190620000fe929190620001d0565b5050565b600033905090565b6000600360009054906101000a900473ffffffffffffffffffffffffffffffffffffffff16905081600360006101000a81548173ffffffffffffffffffffffffffffffffffffffff021916908373ffffffffffffffffffffffffffffffffffffffff1602179055508173ffffffffffffffffffffffffffffffffffffffff168173ffffffffffffffffffffffffffffffffffffffff167f8be0079c531659141344cd1fd0a4f28419497f9722a3daafe3b4186f6b6457e060405160405180910390a35050565b828054620001de9062000280565b90600052602060002090601f0160209004810192826200020257600085556200024e565b82601f106200021d57805160ff19168380011785556200024e565b828001600101855582156200024e579182015b828111156200024d57825182559160200191906001019062000230565b5b5090506200025d919062000261565b5090565b5b808211156200027c57600081600090555060010162000262565b5090565b600060028204905060018216806200029957607f821691505b60208210811415620002b057620002af620002b6565b5b50919050565b7f4e487b7100000000000000000000000000000000000000000000000000000000600052602260045260246000fd5b61353e80620002f56000396000f3fe608060405234801561001057600080fd5b50600436106100e95760003560e01c8063715018a61161008c578063b358bd8911610066578063b358bd8914610246578063e985e9c514610262578063f242432a14610292578063f2fde38b146102ae576100e9565b8063715018a6146102025780638da5cb5b1461020c578063a22cb4651461022a576100e9565b80632eb2c2d6116100c85780632eb2c2d61461017e57806340c10f191461019a5780634e1273f4146101b65780635e26656a146101e6576100e9565b8062fdd58e146100ee57806301ffc9a71461011e5780630e89341c1461014e575b600080fd5b610108600480360381019061010391906122c4565b6102ca565b6040516101159190612b43565b60405180910390f35b6101386004803603810190610133919061236c565b610393565b6040516101459190612921565b60405180910390f35b610168600480360381019061016391906123be565b610475565b604051610175919061293c565b60405180910390f35b6101986004803603810190610193919061213a565b610509565b005b6101b460048036038101906101af91906122c4565b6105aa565b005b6101d060048036038101906101cb9190612300565b610646565b6040516101dd91906128c8565b60405180910390f35b61020060048036038101906101fb91906123be565b6107f7565b005b61020a6108d5565b005b61021461095d565b60405161022191906127eb565b60405180910390f35b610244600480360381019061023f9190612288565b610987565b005b610260600480360381019061025b91906123be565b61099d565b005b61027c600480360381019061027791906120fe565b610a52565b6040516102899190612921565b60405180910390f35b6102ac60048036038101906102a791906121f9565b610ae6565b005b6102c860048036038101906102c391906120d5565b610b87565b005b60008073ffffffffffffffffffffffffffffffffffffffff168373ffffffffffffffffffffffffffffffffffffffff16141561033b576040517f08c379a0000000000000000000000000000000000000000000000000000000008152600401610332906129e3565b60405180910390fd5b60008083815260200190815260200160002060008473ffffffffffffffffffffffffffffffffffffffff1673ffffffffffffffffffffffffffffffffffffffff16815260200190815260200160002054905092915050565b60007fd9b67a26000000000000000000000000000000000000000000000000000000007bffffffffffffffffffffffffffffffffffffffffffffffffffffffff1916827bffffffffffffffffffffffffffffffffffffffffffffffffffffffff1916148061045e57507f0e89341c000000000000000000000000000000000000000000000000000000007bffffffffffffffffffffffffffffffffffffffffffffffffffffffff1916827bffffffffffffffffffffffffffffffffffffffffffffffffffffffff1916145b8061046e575061046d82610c7f565b5b9050919050565b60606002805461048490612e37565b80601f01602080910402602001604051908101604052809291908181526020018280546104b090612e37565b80156104fd5780601f106104d2576101008083540402835291602001916104fd565b820191906000526020600020905b8154815290600101906020018083116104e057829003601f168201915b50505050509050919050565b610511610ce9565b73ffffffffffffffffffffffffffffffffffffffff168573ffffffffffffffffffffffffffffffffffffffff161480610557575061055685610551610ce9565b610a52565b5b610596576040517f08c379a000000000000000000000000000000000000000000000000000000000815260040161058d90612a63565b60405180910390fd5b6105a38585858585610cf1565b5050505050565b6105b2610ce9565b73ffffffffffffffffffffffffffffffffffffffff166105d061095d565b73ffffffffffffffffffffffffffffffffffffffff1614610626576040517f08c379a000000000000000000000000000000000000000000000000000000000815260040161061d90612aa3565b60405180910390fd5b610642828260016040518060200160405280600081525061105f565b5050565b6060815183511461068c576040517f08c379a000000000000000000000000000000000000000000000000000000000815260040161068390612ae3565b60405180910390fd5b6000835167ffffffffffffffff8111156106cf577f4e487b7100000000000000000000000000000000000000000000000000000000600052604160045260246000fd5b6040519080825280602002602001820160405280156106fd5781602001602082028036833780820191505090505b50905060005b84518110156107ec57610796858281518110610748577f4e487b7100000000000000000000000000000000000000000000000000000000600052603260045260246000fd5b6020026020010151858381518110610789577f4e487b7100000000000000000000000000000000000000000000000000000000600052603260045260246000fd5b60200260200101516102ca565b8282815181106107cf577f4e487b7100000000000000000000000000000000000000000000000000000000600052603260045260246000fd5b602002602001018181525050806107e590612e9a565b9050610703565b508091505092915050565b61088a6005805461080790612e37565b80601f016020809104026020016040519081016040528092919081815260200182805461083390612e37565b80156108805780601f1061085557610100808354040283529160200191610880565b820191906000526020600020905b81548152906001019060200180831161086357829003601f168201915b5050505050611210565b6108d26040518060400160405280601381526020017f436c6f73656420555249202573206964202564000000000000000000000000008152506108cc83610475565b8361122a565b50565b6108dd610ce9565b73ffffffffffffffffffffffffffffffffffffffff166108fb61095d565b73ffffffffffffffffffffffffffffffffffffffff1614610951576040517f08c379a000000000000000000000000000000000000000000000000000000000815260040161094890612aa3565b60405180910390fd5b61095b60006112c9565b565b6000600360009054906101000a900473ffffffffffffffffffffffffffffffffffffffff16905090565b610999610992610ce9565b838361138f565b5050565b60066109a8826114fc565b6040516020016109b99291906127a5565b604051602081830303815290604052600790805190602001906109dd929190611e35565b50610a0760076040516020016109f391906127c9565b604051602081830303815290604052611210565b610a4f6040518060400160405280601381526020017f4f70656e65642055524920257320696420256400000000000000000000000000815250610a4983610475565b8361122a565b50565b6000600160008473ffffffffffffffffffffffffffffffffffffffff1673ffffffffffffffffffffffffffffffffffffffff16815260200190815260200160002060008373ffffffffffffffffffffffffffffffffffffffff1673ffffffffffffffffffffffffffffffffffffffff16815260200190815260200160002060009054906101000a900460ff16905092915050565b610aee610ce9565b73ffffffffffffffffffffffffffffffffffffffff168573ffffffffffffffffffffffffffffffffffffffff161480610b345750610b3385610b2e610ce9565b610a52565b5b610b73576040517f08c379a0000000000000000000000000000000000000000000000000000000008152600401610b6a90612a23565b60405180910390fd5b610b8085858585856116a9565b5050505050565b610b8f610ce9565b73ffffffffffffffffffffffffffffffffffffffff16610bad61095d565b73ffffffffffffffffffffffffffffffffffffffff1614610c03576040517f08c379a0000000000000000000000000000000000000000000000000000000008152600401610bfa90612aa3565b60405180910390fd5b600073ffffffffffffffffffffffffffffffffffffffff168173ffffffffffffffffffffffffffffffffffffffff161415610c73576040517f08c379a0000000000000000000000000000000000000000000000000000000008152600401610c6a90612a03565b60405180910390fd5b610c7c816112c9565b50565b60007f01ffc9a7000000000000000000000000000000000000000000000000000000007bffffffffffffffffffffffffffffffffffffffffffffffffffffffff1916827bffffffffffffffffffffffffffffffffffffffffffffffffffffffff1916149050919050565b600033905090565b8151835114610d35576040517f08c379a0000000000000000000000000000000000000000000000000000000008152600401610d2c90612b03565b60405180910390fd5b600073ffffffffffffffffffffffffffffffffffffffff168473ffffffffffffffffffffffffffffffffffffffff161415610da5576040517f08c379a0000000000000000000000000000000000000000000000000000000008152600401610d9c90612a43565b60405180910390fd5b6000610daf610ce9565b9050610dbf818787878787611945565b60005b8451811015610fbc576000858281518110610e06577f4e487b7100000000000000000000000000000000000000000000000000000000600052603260045260246000fd5b602002602001015190506000858381518110610e4b577f4e487b7100000000000000000000000000000000000000000000000000000000600052603260045260246000fd5b60200260200101519050600080600084815260200190815260200160002060008b73ffffffffffffffffffffffffffffffffffffffff1673ffffffffffffffffffffffffffffffffffffffff16815260200190815260200160002054905081811015610eec576040517f08c379a0000000000000000000000000000000000000000000000000000000008152600401610ee390612a83565b60405180910390fd5b81810360008085815260200190815260200160002060008c73ffffffffffffffffffffffffffffffffffffffff1673ffffffffffffffffffffffffffffffffffffffff168152602001908152602001600020819055508160008085815260200190815260200160002060008b73ffffffffffffffffffffffffffffffffffffffff1673ffffffffffffffffffffffffffffffffffffffff1681526020019081526020016000206000828254610fa19190612cc6565b9250508190555050505080610fb590612e9a565b9050610dc2565b508473ffffffffffffffffffffffffffffffffffffffff168673ffffffffffffffffffffffffffffffffffffffff168273ffffffffffffffffffffffffffffffffffffffff167f4a39dc06d4c0dbc64b70af90fd698a233a518aa5d07e595d983b8c0526c8f7fb87876040516110339291906128ea565b60405180910390a461104981878787878761194d565b611057818787878787611955565b505050505050565b600073ffffffffffffffffffffffffffffffffffffffff168473ffffffffffffffffffffffffffffffffffffffff1614156110cf576040517f08c379a00000000000000000000000000000000000000000000000000000000081526004016110c690612b23565b60405180910390fd5b60006110d9610ce9565b905060006110e685611b3c565b905060006110f385611b3c565b905061110483600089858589611945565b8460008088815260200190815260200160002060008973ffffffffffffffffffffffffffffffffffffffff1673ffffffffffffffffffffffffffffffffffffffff16815260200190815260200160002060008282546111639190612cc6565b925050819055508673ffffffffffffffffffffffffffffffffffffffff16600073ffffffffffffffffffffffffffffffffffffffff168473ffffffffffffffffffffffffffffffffffffffff167fc3d58168c5ae7397731d063d5bbf3d657854427343f4c083240f7aacaa2d0f6289896040516111e1929190612b5e565b60405180910390a46111f88360008985858961194d565b61120783600089898989611c02565b50505050505050565b8060029080519060200190611226929190611e35565b5050565b6112c48383836040516024016112429392919061295e565b6040516020818303038152906040527ff362ca59000000000000000000000000000000000000000000000000000000007bffffffffffffffffffffffffffffffffffffffffffffffffffffffff19166020820180517bffffffffffffffffffffffffffffffffffffffffffffffffffffffff8381831617835250505050611de9565b505050565b6000600360009054906101000a900473ffffffffffffffffffffffffffffffffffffffff16905081600360006101000a81548173ffffffffffffffffffffffffffffffffffffffff021916908373ffffffffffffffffffffffffffffffffffffffff1602179055508173ffffffffffffffffffffffffffffffffffffffff168173ffffffffffffffffffffffffffffffffffffffff167f8be0079c531659141344cd1fd0a4f28419497f9722a3daafe3b4186f6b6457e060405160405180910390a35050565b8173ffffffffffffffffffffffffffffffffffffffff168373ffffffffffffffffffffffffffffffffffffffff1614156113fe576040517f08c379a00000000000000000000000000000000000000000000000000000000081526004016113f590612ac3565b60405180910390fd5b80600160008573ffffffffffffffffffffffffffffffffffffffff1673ffffffffffffffffffffffffffffffffffffffff16815260200190815260200160002060008473ffffffffffffffffffffffffffffffffffffffff1673ffffffffffffffffffffffffffffffffffffffff16815260200190815260200160002060006101000a81548160ff0219169083151502179055508173ffffffffffffffffffffffffffffffffffffffff168373ffffffffffffffffffffffffffffffffffffffff167f17307eab39ab6107e8899845ad3d59bd9653f200f220920489ca2b5937696c31836040516114ef9190612921565b60405180910390a3505050565b60606000821415611544576040518060400160405280600181526020017f300000000000000000000000000000000000000000000000000000000000000081525090506116a4565b600082905060005b6000821461157657808061155f90612e9a565b915050600a8261156f9190612d1c565b915061154c565b60008167ffffffffffffffff8111156115b8577f4e487b7100000000000000000000000000000000000000000000000000000000600052604160045260246000fd5b6040519080825280601f01601f1916602001820160405280156115ea5781602001600182028036833780820191505090505b5090505b6000851461169d576001826116039190612d4d565b9150600a856116129190612ee3565b603061161e9190612cc6565b60f81b81838151811061165a577f4e487b7100000000000000000000000000000000000000000000000000000000600052603260045260246000fd5b60200101907effffffffffffffffffffffffffffffffffffffffffffffffffffffffffffff1916908160001a905350600a856116969190612d1c565b94506115ee565b8093505050505b919050565b600073ffffffffffffffffffffffffffffffffffffffff168473ffffffffffffffffffffffffffffffffffffffff161415611719576040517f08c379a000000000000000000000000000000000000000000000000000000000815260040161171090612a43565b60405180910390fd5b6000611723610ce9565b9050600061173085611b3c565b9050600061173d85611b3c565b905061174d838989858589611945565b600080600088815260200190815260200160002060008a73ffffffffffffffffffffffffffffffffffffffff1673ffffffffffffffffffffffffffffffffffffffff168152602001908152602001600020549050858110156117e4576040517f08c379a00000000000000000000000000000000000000000000000000000000081526004016117db90612a83565b60405180910390fd5b85810360008089815260200190815260200160002060008b73ffffffffffffffffffffffffffffffffffffffff1673ffffffffffffffffffffffffffffffffffffffff168152602001908152602001600020819055508560008089815260200190815260200160002060008a73ffffffffffffffffffffffffffffffffffffffff1673ffffffffffffffffffffffffffffffffffffffff16815260200190815260200160002060008282546118999190612cc6565b925050819055508773ffffffffffffffffffffffffffffffffffffffff168973ffffffffffffffffffffffffffffffffffffffff168573ffffffffffffffffffffffffffffffffffffffff167fc3d58168c5ae7397731d063d5bbf3d657854427343f4c083240f7aacaa2d0f628a8a604051611916929190612b5e565b60405180910390a461192c848a8a86868a61194d565b61193a848a8a8a8a8a611c02565b505050505050505050565b505050505050565b505050505050565b6119748473ffffffffffffffffffffffffffffffffffffffff16611e12565b15611b34578373ffffffffffffffffffffffffffffffffffffffff1663bc197c8187878686866040518663ffffffff1660e01b81526004016119ba959493929190612806565b602060405180830381600087803b1580156119d457600080fd5b505af1925050508015611a0557506040513d601f19601f82011682018060405250810190611a029190612395565b60015b611aab57611a11612fd0565b806308c379a01415611a6e5750611a26613416565b80611a315750611a70565b806040517f08c379a0000000000000000000000000000000000000000000000000000000008152600401611a65919061293c565b60405180910390fd5b505b6040517f08c379a0000000000000000000000000000000000000000000000000000000008152600401611aa2906129a3565b60405180910390fd5b63bc197c8160e01b7bffffffffffffffffffffffffffffffffffffffffffffffffffffffff1916817bffffffffffffffffffffffffffffffffffffffffffffffffffffffff191614611b32576040517f08c379a0000000000000000000000000000000000000000000000000000000008152600401611b29906129c3565b60405180910390fd5b505b505050505050565b60606000600167ffffffffffffffff811115611b81577f4e487b7100000000000000000000000000000000000000000000000000000000600052604160045260246000fd5b604051908082528060200260200182016040528015611baf5781602001602082028036833780820191505090505b5090508281600081518110611bed577f4e487b7100000000000000000000000000000000000000000000000000000000600052603260045260246000fd5b60200260200101818152505080915050919050565b611c218473ffffffffffffffffffffffffffffffffffffffff16611e12565b15611de1578373ffffffffffffffffffffffffffffffffffffffff1663f23a6e6187878686866040518663ffffffff1660e01b8152600401611c6795949392919061286e565b602060405180830381600087803b158015611c8157600080fd5b505af1925050508015611cb257506040513d601f19601f82011682018060405250810190611caf9190612395565b60015b611d5857611cbe612fd0565b806308c379a01415611d1b5750611cd3613416565b80611cde5750611d1d565b806040517f08c379a0000000000000000000000000000000000000000000000000000000008152600401611d12919061293c565b60405180910390fd5b505b6040517f08c379a0000000000000000000000000000000000000000000000000000000008152600401611d4f906129a3565b60405180910390fd5b63f23a6e6160e01b7bffffffffffffffffffffffffffffffffffffffffffffffffffffffff1916817bffffffffffffffffffffffffffffffffffffffffffffffffffffffff191614611ddf576040517f08c379a0000000000000000000000000000000000000000000000000000000008152600401611dd6906129c3565b60405180910390fd5b505b505050505050565b60008151905060006a636f6e736f6c652e6c6f679050602083016000808483855afa5050505050565b6000808273ffffffffffffffffffffffffffffffffffffffff163b119050919050565b828054611e4190612e37565b90600052602060002090601f016020900481019282611e635760008555611eaa565b82601f10611e7c57805160ff1916838001178555611eaa565b82800160010185558215611eaa579182015b82811115611ea9578251825591602001919060010190611e8e565b5b509050611eb79190611ebb565b5090565b5b80821115611ed4576000816000905550600101611ebc565b5090565b6000611eeb611ee684612bac565b612b87565b90508083825260208201905082856020860282011115611f0a57600080fd5b60005b85811015611f3a5781611f208882611fee565b845260208401935060208301925050600181019050611f0d565b5050509392505050565b6000611f57611f5284612bd8565b612b87565b90508083825260208201905082856020860282011115611f7657600080fd5b60005b85811015611fa65781611f8c88826120c0565b845260208401935060208301925050600181019050611f79565b5050509392505050565b6000611fc3611fbe84612c04565b612b87565b905082815260208101848484011115611fdb57600080fd5b611fe6848285612df5565b509392505050565b600081359050611ffd816134ac565b92915050565b600082601f83011261201457600080fd5b8135612024848260208601611ed8565b91505092915050565b600082601f83011261203e57600080fd5b813561204e848260208601611f44565b91505092915050565b600081359050612066816134c3565b92915050565b60008135905061207b816134da565b92915050565b600081519050612090816134da565b92915050565b600082601f8301126120a757600080fd5b81356120b7848260208601611fb0565b91505092915050565b6000813590506120cf816134f1565b92915050565b6000602082840312156120e757600080fd5b60006120f584828501611fee565b91505092915050565b6000806040838503121561211157600080fd5b600061211f85828601611fee565b925050602061213085828601611fee565b9150509250929050565b600080600080600060a0868803121561215257600080fd5b600061216088828901611fee565b955050602061217188828901611fee565b945050604086013567ffffffffffffffff81111561218e57600080fd5b61219a8882890161202d565b935050606086013567ffffffffffffffff8111156121b757600080fd5b6121c38882890161202d565b925050608086013567ffffffffffffffff8111156121e057600080fd5b6121ec88828901612096565b9150509295509295909350565b600080600080600060a0868803121561221157600080fd5b600061221f88828901611fee565b955050602061223088828901611fee565b9450506040612241888289016120c0565b9350506060612252888289016120c0565b925050608086013567ffffffffffffffff81111561226f57600080fd5b61227b88828901612096565b9150509295509295909350565b6000806040838503121561229b57600080fd5b60006122a985828601611fee565b92505060206122ba85828601612057565b9150509250929050565b600080604083850312156122d757600080fd5b60006122e585828601611fee565b92505060206122f6858286016120c0565b9150509250929050565b6000806040838503121561231357600080fd5b600083013567ffffffffffffffff81111561232d57600080fd5b61233985828601612003565b925050602083013567ffffffffffffffff81111561235657600080fd5b6123628582860161202d565b9150509250929050565b60006020828403121561237e57600080fd5b600061238c8482850161206c565b91505092915050565b6000602082840312156123a757600080fd5b60006123b584828501612081565b91505092915050565b6000602082840312156123d057600080fd5b60006123de848285016120c0565b91505092915050565b60006123f38383612787565b60208301905092915050565b61240881612d81565b82525050565b600061241982612c5a565b6124238185612c88565b935061242e83612c35565b8060005b8381101561245f57815161244688826123e7565b975061245183612c7b565b925050600181019050612432565b5085935050505092915050565b61247581612d93565b82525050565b600061248682612c65565b6124908185612c99565b93506124a0818560208601612e04565b6124a981612ff2565b840191505092915050565b60006124bf82612c70565b6124c98185612caa565b93506124d9818560208601612e04565b6124e281612ff2565b840191505092915050565b60006124f882612c70565b6125028185612cbb565b9350612512818560208601612e04565b80840191505092915050565b6000815461252b81612e37565b6125358186612cbb565b94506001821660008114612550576001811461256157612594565b60ff19831686528186019350612594565b61256a85612c45565b60005b8381101561258c5781548189015260018201915060208101905061256d565b838801955050505b50505092915050565b60006125aa603483612caa565b91506125b582613010565b604082019050919050565b60006125cd602883612caa565b91506125d88261305f565b604082019050919050565b60006125f0602b83612caa565b91506125fb826130ae565b604082019050919050565b6000612613602683612caa565b915061261e826130fd565b604082019050919050565b6000612636602983612caa565b91506126418261314c565b604082019050919050565b6000612659602583612caa565b91506126648261319b565b604082019050919050565b600061267c603283612caa565b9150612687826131ea565b604082019050919050565b600061269f602a83612caa565b91506126aa82613239565b604082019050919050565b60006126c2600583612cbb565b91506126cd82613288565b600582019050919050565b60006126e5602083612caa565b91506126f0826132b1565b602082019050919050565b6000612708602983612caa565b9150612713826132da565b604082019050919050565b600061272b602983612caa565b915061273682613329565b604082019050919050565b600061274e602883612caa565b915061275982613378565b604082019050919050565b6000612771602183612caa565b915061277c826133c7565b604082019050919050565b61279081612deb565b82525050565b61279f81612deb565b82525050565b60006127b1828561251e565b91506127bd82846124ed565b91508190509392505050565b60006127d5828461251e565b91506127e0826126b5565b915081905092915050565b600060208201905061280060008301846123ff565b92915050565b600060a08201905061281b60008301886123ff565b61282860208301876123ff565b818103604083015261283a818661240e565b9050818103606083015261284e818561240e565b90508181036080830152612862818461247b565b90509695505050505050565b600060a08201905061288360008301886123ff565b61289060208301876123ff565b61289d6040830186612796565b6128aa6060830185612796565b81810360808301526128bc818461247b565b90509695505050505050565b600060208201905081810360008301526128e2818461240e565b905092915050565b60006040820190508181036000830152612904818561240e565b90508181036020830152612918818461240e565b90509392505050565b6000602082019050612936600083018461246c565b92915050565b6000602082019050818103600083015261295681846124b4565b905092915050565b6000606082019050818103600083015261297881866124b4565b9050818103602083015261298c81856124b4565b905061299b6040830184612796565b949350505050565b600060208201905081810360008301526129bc8161259d565b9050919050565b600060208201905081810360008301526129dc816125c0565b9050919050565b600060208201905081810360008301526129fc816125e3565b9050919050565b60006020820190508181036000830152612a1c81612606565b9050919050565b60006020820190508181036000830152612a3c81612629565b9050919050565b60006020820190508181036000830152612a5c8161264c565b9050919050565b60006020820190508181036000830152612a7c8161266f565b9050919050565b60006020820190508181036000830152612a9c81612692565b9050919050565b60006020820190508181036000830152612abc816126d8565b9050919050565b60006020820190508181036000830152612adc816126fb565b9050919050565b60006020820190508181036000830152612afc8161271e565b9050919050565b60006020820190508181036000830152612b1c81612741565b9050919050565b60006020820190508181036000830152612b3c81612764565b9050919050565b6000602082019050612b586000830184612796565b92915050565b6000604082019050612b736000830185612796565b612b806020830184612796565b9392505050565b6000612b91612ba2565b9050612b9d8282612e69565b919050565b6000604051905090565b600067ffffffffffffffff821115612bc757612bc6612fa1565b5b602082029050602081019050919050565b600067ffffffffffffffff821115612bf357612bf2612fa1565b5b602082029050602081019050919050565b600067ffffffffffffffff821115612c1f57612c1e612fa1565b5b612c2882612ff2565b9050602081019050919050565b6000819050602082019050919050565b60008190508160005260206000209050919050565b600081519050919050565b600081519050919050565b600081519050919050565b6000602082019050919050565b600082825260208201905092915050565b600082825260208201905092915050565b600082825260208201905092915050565b600081905092915050565b6000612cd182612deb565b9150612cdc83612deb565b9250827fffffffffffffffffffffffffffffffffffffffffffffffffffffffffffffffff03821115612d1157612d10612f14565b5b828201905092915050565b6000612d2782612deb565b9150612d3283612deb565b925082612d4257612d41612f43565b5b828204905092915050565b6000612d5882612deb565b9150612d6383612deb565b925082821015612d7657612d75612f14565b5b828203905092915050565b6000612d8c82612dcb565b9050919050565b60008115159050919050565b60007fffffffff0000000000000000000000000000000000000000000000000000000082169050919050565b600073ffffffffffffffffffffffffffffffffffffffff82169050919050565b6000819050919050565b82818337600083830152505050565b60005b83811015612e22578082015181840152602081019050612e07565b83811115612e31576000848401525b50505050565b60006002820490506001821680612e4f57607f821691505b60208210811415612e6357612e62612f72565b5b50919050565b612e7282612ff2565b810181811067ffffffffffffffff82111715612e9157612e90612fa1565b5b80604052505050565b6000612ea582612deb565b91507fffffffffffffffffffffffffffffffffffffffffffffffffffffffffffffffff821415612ed857612ed7612f14565b5b600182019050919050565b6000612eee82612deb565b9150612ef983612deb565b925082612f0957612f08612f43565b5b828206905092915050565b7f4e487b7100000000000000000000000000000000000000000000000000000000600052601160045260246000fd5b7f4e487b7100000000000000000000000000000000000000000000000000000000600052601260045260246000fd5b7f4e487b7100000000000000000000000000000000000000000000000000000000600052602260045260246000fd5b7f4e487b7100000000000000000000000000000000000000000000000000000000600052604160045260246000fd5b600060033d1115612fef5760046000803e612fec600051613003565b90505b90565b6000601f19601f8301169050919050565b60008160e01c9050919050565b7f455243313135353a207472616e7366657220746f206e6f6e204552433131353560008201527f526563656976657220696d706c656d656e746572000000000000000000000000602082015250565b7f455243313135353a204552433131353552656365697665722072656a6563746560008201527f6420746f6b656e73000000000000000000000000000000000000000000000000602082015250565b7f455243313135353a2062616c616e636520717565727920666f7220746865207a60008201527f65726f2061646472657373000000000000000000000000000000000000000000602082015250565b7f4f776e61626c653a206e6577206f776e657220697320746865207a65726f206160008201527f6464726573730000000000000000000000000000000000000000000000000000602082015250565b7f455243313135353a2063616c6c6572206973206e6f74206f776e6572206e6f7260008201527f20617070726f7665640000000000000000000000000000000000000000000000602082015250565b7f455243313135353a207472616e7366657220746f20746865207a65726f20616460008201527f6472657373000000000000000000000000000000000000000000000000000000602082015250565b7f455243313135353a207472616e736665722063616c6c6572206973206e6f742060008201527f6f776e6572206e6f7220617070726f7665640000000000000000000000000000602082015250565b7f455243313135353a20696e73756666696369656e742062616c616e636520666f60008201527f72207472616e7366657200000000000000000000000000000000000000000000602082015250565b7f2e6a736f6e000000000000000000000000000000000000000000000000000000600082015250565b7f4f776e61626c653a2063616c6c6572206973206e6f7420746865206f776e6572600082015250565b7f455243313135353a2073657474696e6720617070726f76616c2073746174757360008201527f20666f722073656c660000000000000000000000000000000000000000000000602082015250565b7f455243313135353a206163636f756e747320616e6420696473206c656e67746860008201527f206d69736d617463680000000000000000000000000000000000000000000000602082015250565b7f455243313135353a2069647320616e6420616d6f756e7473206c656e6774682060008201527f6d69736d61746368000000000000000000000000000000000000000000000000602082015250565b7f455243313135353a206d696e7420746f20746865207a65726f2061646472657360008201527f7300000000000000000000000000000000000000000000000000000000000000602082015250565b600060443d1015613426576134a9565b61342e612ba2565b60043d036004823e80513d602482011167ffffffffffffffff821117156134565750506134a9565b808201805167ffffffffffffffff81111561347457505050506134a9565b80602083010160043d0385018111156134915750505050506134a9565b6134a082602001850186612e69565b82955050505050505b90565b6134b581612d81565b81146134c057600080fd5b50565b6134cc81612d93565b81146134d757600080fd5b50565b6134e381612d9f565b81146134ee57600080fd5b50565b6134fa81612deb565b811461350557600080fd5b5056fea264697066735822122013b53d6a7f7ac7a638d16a26f579c2d7d827907604562ffccd7061f672b3832764736f6c6343000804003368747470733a2f2f7261772e67697468756275736572636f6e74656e742e636f6d2f706563752f506563754c6162345345502f6d61696e2f4e46542d455243313135352f50494430303068747470733a2f2f7261772e67697468756275736572636f6e74656e742e636f6d2f706563752f506563754c6162345345502f6d61696e2f4e46542d455243313135352f504944303030302e6a736f6e",
  "linkReferences": {},
  "deployedLinkReferences": {}
}