{
  "_format": "hh-sol-artifact-1",
  "contractName": "Vendor",
  "sourceName": "contracts/vendor.sol",
  "abi": [
    {
      "inputs": [],
      "stateMutability": "nonpayable",
      "type": "constructor"
    },
    {
      "anonymous": false,
      "inputs": [
        {
          "indexed": false,
          "internalType": "address",
          "name": "buyer",
          "type": "address"
        },
        {
          "indexed": false,
          "internalType": "uint256",
          "name": "amountOfEth",
          "type": "uint256"
        },
        {
          "indexed": false,
          "internalType": "uint256",
          "name": "amountOfTokens",
          "type": "uint256"
        }
      ],
      "name": "BuyTokens",
      "type": "event"
    },
    {
      "anonymous": false,
      "inputs": [
        {
          "indexed": true,
          "internalType": "address",
          "name": "previousOwner",
          "type": "address"
        },
        {
          "indexed": true,
          "internalType": "address",
          "name": "newOwner",
          "type": "address"
        }
      ],
      "name": "OwnershipTransferred",
      "type": "event"
    },
    {
      "inputs": [],
      "name": "buyTokens",
      "outputs": [],
      "stateMutability": "payable",
      "type": "function"
    },
    {
      "inputs": [],
      "name": "owner",
      "outputs": [
        {
          "internalType": "address",
          "name": "",
          "type": "address"
        }
      ],
      "stateMutability": "view",
      "type": "function"
    },
    {
      "inputs": [],
      "name": "renounceOwnership",
      "outputs": [],
      "stateMutability": "nonpayable",
      "type": "function"
    },
    {
      "inputs": [],
      "name": "tokensPerEth",
      "outputs": [
        {
          "internalType": "uint256",
          "name": "",
          "type": "uint256"
        }
      ],
      "stateMutability": "view",
      "type": "function"
    },
    {
      "inputs": [
        {
          "internalType": "address",
          "name": "newOwner",
          "type": "address"
        }
      ],
      "name": "transferOwnership",
      "outputs": [],
      "stateMutability": "nonpayable",
      "type": "function"
    },
    {
      "inputs": [],
      "name": "withdraw",
      "outputs": [],
      "stateMutability": "nonpayable",
      "type": "function"
    }
  ],
  "bytecode": "0x60806040526103e860025534801561001657600080fd5b5061003361002861008d60201b60201c565b61009560201b60201c565b73970fd02df663a6379d65566eda2383d953133d8f600160006101000a81548173ffffffffffffffffffffffffffffffffffffffff021916908373ffffffffffffffffffffffffffffffffffffffff160217905550610159565b600033905090565b60008060009054906101000a900473ffffffffffffffffffffffffffffffffffffffff169050816000806101000a81548173ffffffffffffffffffffffffffffffffffffffff021916908373ffffffffffffffffffffffffffffffffffffffff1602179055508173ffffffffffffffffffffffffffffffffffffffff168173ffffffffffffffffffffffffffffffffffffffff167f8be0079c531659141344cd1fd0a4f28419497f9722a3daafe3b4186f6b6457e060405160405180910390a35050565b610dca806101686000396000f3fe6080604052600436106100555760003560e01c80633ccfd60b1461005a578063715018a6146100715780638da5cb5b14610088578063cbdd69b5146100b3578063d0febe4c146100de578063f2fde38b146100e8575b600080fd5b34801561006657600080fd5b5061006f610111565b005b34801561007d57600080fd5b50610086610285565b005b34801561009457600080fd5b5061009d61030d565b6040516100aa919061097e565b60405180910390f35b3480156100bf57600080fd5b506100c8610336565b6040516100d59190610ad9565b60405180910390f35b6100e661033c565b005b3480156100f457600080fd5b5061010f600480360381019061010a91906107b8565b6105b5565b005b6101196106ad565b73ffffffffffffffffffffffffffffffffffffffff1661013761030d565b73ffffffffffffffffffffffffffffffffffffffff161461018d576040517f08c379a000000000000000000000000000000000000000000000000000000000815260040161018490610ab9565b60405180910390fd5b6000479050600081116101d5576040517f08c379a00000000000000000000000000000000000000000000000000000000081526004016101cc90610a19565b60405180910390fd5b60003373ffffffffffffffffffffffffffffffffffffffff16826040516101fb90610969565b60006040518083038185875af1925050503d8060008114610238576040519150601f19603f3d011682016040523d82523d6000602084013e61023d565b606091505b5050905080610281576040517f08c379a000000000000000000000000000000000000000000000000000000000815260040161027890610a39565b60405180910390fd5b5050565b61028d6106ad565b73ffffffffffffffffffffffffffffffffffffffff166102ab61030d565b73ffffffffffffffffffffffffffffffffffffffff1614610301576040517f08c379a00000000000000000000000000000000000000000000000000000000081526004016102f890610ab9565b60405180910390fd5b61030b60006106b5565b565b60008060009054906101000a900473ffffffffffffffffffffffffffffffffffffffff16905090565b60025481565b6000341161037f576040517f08c379a000000000000000000000000000000000000000000000000000000000815260040161037690610a79565b60405180910390fd5b60006002543461038f9190610b10565b90506000600160009054906101000a900473ffffffffffffffffffffffffffffffffffffffff1673ffffffffffffffffffffffffffffffffffffffff166370a08231306040518263ffffffff1660e01b81526004016103ee919061097e565b60206040518083038186803b15801561040657600080fd5b505afa15801561041a573d6000803e3d6000fd5b505050506040513d601f19601f8201168201806040525081019061043e919061080a565b9050818111610482576040517f08c379a000000000000000000000000000000000000000000000000000000000815260040161047990610a59565b60405180910390fd5b6000600160009054906101000a900473ffffffffffffffffffffffffffffffffffffffff1673ffffffffffffffffffffffffffffffffffffffff1663a9059cbb33856040518363ffffffff1660e01b81526004016104e1929190610999565b602060405180830381600087803b1580156104fb57600080fd5b505af115801561050f573d6000803e3d6000fd5b505050506040513d601f19601f8201168201806040525081019061053391906107e1565b905080610575576040517f08c379a000000000000000000000000000000000000000000000000000000000815260040161056c90610a99565b60405180910390fd5b7f0a37b72bb67eee30e09084cf386f8a17817c57f620c3ab95fb25d6a20356ec773334856040516105a8939291906109c2565b60405180910390a1505050565b6105bd6106ad565b73ffffffffffffffffffffffffffffffffffffffff166105db61030d565b73ffffffffffffffffffffffffffffffffffffffff1614610631576040517f08c379a000000000000000000000000000000000000000000000000000000000815260040161062890610ab9565b60405180910390fd5b600073ffffffffffffffffffffffffffffffffffffffff168173ffffffffffffffffffffffffffffffffffffffff1614156106a1576040517f08c379a0000000000000000000000000000000000000000000000000000000008152600401610698906109f9565b60405180910390fd5b6106aa816106b5565b50565b600033905090565b60008060009054906101000a900473ffffffffffffffffffffffffffffffffffffffff169050816000806101000a81548173ffffffffffffffffffffffffffffffffffffffff021916908373ffffffffffffffffffffffffffffffffffffffff1602179055508173ffffffffffffffffffffffffffffffffffffffff168173ffffffffffffffffffffffffffffffffffffffff167f8be0079c531659141344cd1fd0a4f28419497f9722a3daafe3b4186f6b6457e060405160405180910390a35050565b60008135905061078881610d4f565b92915050565b60008151905061079d81610d66565b92915050565b6000815190506107b281610d7d565b92915050565b6000602082840312156107ca57600080fd5b60006107d884828501610779565b91505092915050565b6000602082840312156107f357600080fd5b60006108018482850161078e565b91505092915050565b60006020828403121561081c57600080fd5b600061082a848285016107a3565b91505092915050565b61083c81610b6a565b82525050565b600061084f602683610aff565b915061085a82610be1565b604082019050919050565b6000610872601483610aff565b915061087d82610c30565b602082019050919050565b6000610895601a83610aff565b91506108a082610c59565b602082019050919050565b60006108b8601283610aff565b91506108c382610c82565b602082019050919050565b60006108db601183610aff565b91506108e682610cab565b602082019050919050565b60006108fe602583610aff565b915061090982610cd4565b604082019050919050565b6000610921602083610aff565b915061092c82610d23565b602082019050919050565b6000610944600083610af4565b915061094f82610d4c565b600082019050919050565b61096381610ba8565b82525050565b600061097482610937565b9150819050919050565b60006020820190506109936000830184610833565b92915050565b60006040820190506109ae6000830185610833565b6109bb602083018461095a565b9392505050565b60006060820190506109d76000830186610833565b6109e4602083018561095a565b6109f1604083018461095a565b949350505050565b60006020820190508181036000830152610a1281610842565b9050919050565b60006020820190508181036000830152610a3281610865565b9050919050565b60006020820190508181036000830152610a5281610888565b9050919050565b60006020820190508181036000830152610a72816108ab565b9050919050565b60006020820190508181036000830152610a92816108ce565b9050919050565b60006020820190508181036000830152610ab2816108f1565b9050919050565b60006020820190508181036000830152610ad281610914565b9050919050565b6000602082019050610aee600083018461095a565b92915050565b600081905092915050565b600082825260208201905092915050565b6000610b1b82610ba8565b9150610b2683610ba8565b9250817fffffffffffffffffffffffffffffffffffffffffffffffffffffffffffffffff0483118215151615610b5f57610b5e610bb2565b5b828202905092915050565b6000610b7582610b88565b9050919050565b60008115159050919050565b600073ffffffffffffffffffffffffffffffffffffffff82169050919050565b6000819050919050565b7f4e487b7100000000000000000000000000000000000000000000000000000000600052601160045260246000fd5b7f4f776e61626c653a206e6577206f776e657220697320746865207a65726f206160008201527f6464726573730000000000000000000000000000000000000000000000000000602082015250565b7f4e6f20657468657220746f207769746864726177000000000000000000000000600082015250565b7f4661696c656420746f2077697468647261772062616c616e6365000000000000600082015250565b7f4e6f7420656e6f7567687420746f6b656e730000000000000000000000000000600082015250565b7f4e6f7420656e6f75676874206574686572000000000000000000000000000000600082015250565b7f4661696c656420746f207472616e7366657220746f6b656e20746f207468652060008201527f6275796572000000000000000000000000000000000000000000000000000000602082015250565b7f4f776e61626c653a2063616c6c6572206973206e6f7420746865206f776e6572600082015250565b50565b610d5881610b6a565b8114610d6357600080fd5b50565b610d6f81610b7c565b8114610d7a57600080fd5b50565b610d8681610ba8565b8114610d9157600080fd5b5056fea2646970667358221220304505f47043ddb4e18270ac27411f9759a8e99ac545db8d4449f4a21ca1003464736f6c63430008040033",
  "linkReferences": {},
  "deployedLinkReferences": {}
}